{
	"contracts/0_ICO/test.sol": {
		"MiContratoICO": {
			"abi": [
				{
					"inputs": [
						{
							"internalType": "uint256",
							"name": "_openingTime",
							"type": "uint256"
						},
						{
							"internalType": "uint256",
							"name": "_closingTime",
							"type": "uint256"
						}
					],
					"stateMutability": "nonpayable",
					"type": "constructor"
				},
				{
					"inputs": [],
					"name": "closingTime",
					"outputs": [
						{
							"internalType": "uint256",
							"name": "",
							"type": "uint256"
						}
					],
					"stateMutability": "view",
					"type": "function"
				},
				{
					"inputs": [],
					"name": "openingTime",
					"outputs": [
						{
							"internalType": "uint256",
							"name": "",
							"type": "uint256"
						}
					],
					"stateMutability": "view",
					"type": "function"
				}
			],
			"devdoc": {
				"kind": "dev",
				"methods": {},
				"version": 1
			},
			"evm": {
				"assembly": "    /* \"contracts/0_ICO/test.sol\":63:536  contract MiContratoICO {... */\n  mstore(0x40, 0x80)\n    /* \"contracts/0_ICO/test.sol\":161:502  constructor(uint256 _openingTime, uint256 _closingTime) {... */\n  callvalue\n  dup1\n  iszero\n  tag_1\n  jumpi\n  0x00\n  dup1\n  revert\ntag_1:\n  pop\n  mload(0x40)\n  sub(codesize, bytecodeSize)\n  dup1\n  bytecodeSize\n  dup4\n  codecopy\n  dup2\n  dup2\n  add\n  0x40\n  mstore\n  dup2\n  add\n  swap1\n  tag_2\n  swap2\n  swap1\n  tag_3\n  jump\t// in\ntag_2:\n    /* \"contracts/0_ICO/test.sol\":252:267  block.timestamp */\n  timestamp\n    /* \"contracts/0_ICO/test.sol\":236:248  _openingTime */\n  dup3\n    /* \"contracts/0_ICO/test.sol\":236:267  _openingTime >= block.timestamp */\n  lt\n  iszero\n    /* \"contracts/0_ICO/test.sol\":228:311  require(_openingTime >= block.timestamp, \"La hora de inicio debe ser en el futuro\") */\n  tag_6\n  jumpi\n  mload(0x40)\n  0x08c379a000000000000000000000000000000000000000000000000000000000\n  dup2\n  mstore\n  0x04\n  add\n  tag_7\n  swap1\n  tag_8\n  jump\t// in\ntag_7:\n  mload(0x40)\n  dup1\n  swap2\n  sub\n  swap1\n  revert\ntag_6:\n    /* \"contracts/0_ICO/test.sol\":345:357  _openingTime */\n  dup2\n    /* \"contracts/0_ICO/test.sol\":330:342  _closingTime */\n  dup2\n    /* \"contracts/0_ICO/test.sol\":330:357  _closingTime > _openingTime */\n  gt\n    /* \"contracts/0_ICO/test.sol\":322:418  require(_closingTime > _openingTime, \"La hora de cierre debe ser posterior a la hora de inicio\") */\n  tag_9\n  jumpi\n  mload(0x40)\n  0x08c379a000000000000000000000000000000000000000000000000000000000\n  dup2\n  mstore\n  0x04\n  add\n  tag_10\n  swap1\n  tag_11\n  jump\t// in\ntag_10:\n  mload(0x40)\n  dup1\n  swap2\n  sub\n  swap1\n  revert\ntag_9:\n    /* \"contracts/0_ICO/test.sol\":445:457  _openingTime */\n  dup2\n    /* \"contracts/0_ICO/test.sol\":431:442  openingTime */\n  0x00\n    /* \"contracts/0_ICO/test.sol\":431:457  openingTime = _openingTime */\n  dup2\n  swap1\n  sstore\n  pop\n    /* \"contracts/0_ICO/test.sol\":482:494  _closingTime */\n  dup1\n    /* \"contracts/0_ICO/test.sol\":468:479  closingTime */\n  0x01\n    /* \"contracts/0_ICO/test.sol\":468:494  closingTime = _closingTime */\n  dup2\n  swap1\n  sstore\n  pop\n    /* \"contracts/0_ICO/test.sol\":161:502  constructor(uint256 _openingTime, uint256 _closingTime) {... */\n  pop\n  pop\n    /* \"contracts/0_ICO/test.sol\":63:536  contract MiContratoICO {... */\n  jump(tag_12)\n    /* \"#utility.yul\":88:205   */\ntag_14:\n    /* \"#utility.yul\":197:198   */\n  0x00\n    /* \"#utility.yul\":194:195   */\n  dup1\n    /* \"#utility.yul\":187:199   */\n  revert\n    /* \"#utility.yul\":334:411   */\ntag_16:\n    /* \"#utility.yul\":371:378   */\n  0x00\n    /* \"#utility.yul\":400:405   */\n  dup2\n    /* \"#utility.yul\":389:405   */\n  swap1\n  pop\n    /* \"#utility.yul\":334:411   */\n  swap2\n  swap1\n  pop\n  jump\t// out\n    /* \"#utility.yul\":417:539   */\ntag_17:\n    /* \"#utility.yul\":490:514   */\n  tag_30\n    /* \"#utility.yul\":508:513   */\n  dup2\n    /* \"#utility.yul\":490:514   */\n  tag_16\n  jump\t// in\ntag_30:\n    /* \"#utility.yul\":483:488   */\n  dup2\n    /* \"#utility.yul\":480:515   */\n  eq\n    /* \"#utility.yul\":470:533   */\n  tag_31\n  jumpi\n    /* \"#utility.yul\":529:530   */\n  0x00\n    /* \"#utility.yul\":526:527   */\n  dup1\n    /* \"#utility.yul\":519:531   */\n  revert\n    /* \"#utility.yul\":470:533   */\ntag_31:\n    /* \"#utility.yul\":417:539   */\n  pop\n  jump\t// out\n    /* \"#utility.yul\":545:688   */\ntag_18:\n    /* \"#utility.yul\":602:607   */\n  0x00\n    /* \"#utility.yul\":633:639   */\n  dup2\n    /* \"#utility.yul\":627:640   */\n  mload\n    /* \"#utility.yul\":618:640   */\n  swap1\n  pop\n    /* \"#utility.yul\":649:682   */\n  tag_33\n    /* \"#utility.yul\":676:681   */\n  dup2\n    /* \"#utility.yul\":649:682   */\n  tag_17\n  jump\t// in\ntag_33:\n    /* \"#utility.yul\":545:688   */\n  swap3\n  swap2\n  pop\n  pop\n  jump\t// out\n    /* \"#utility.yul\":694:1201   */\ntag_3:\n    /* \"#utility.yul\":773:779   */\n  0x00\n    /* \"#utility.yul\":781:787   */\n  dup1\n    /* \"#utility.yul\":830:832   */\n  0x40\n    /* \"#utility.yul\":818:827   */\n  dup4\n    /* \"#utility.yul\":809:816   */\n  dup6\n    /* \"#utility.yul\":805:828   */\n  sub\n    /* \"#utility.yul\":801:833   */\n  slt\n    /* \"#utility.yul\":798:917   */\n  iszero\n  tag_35\n  jumpi\n    /* \"#utility.yul\":836:915   */\n  tag_36\n  tag_14\n  jump\t// in\ntag_36:\n    /* \"#utility.yul\":798:917   */\ntag_35:\n    /* \"#utility.yul\":956:957   */\n  0x00\n    /* \"#utility.yul\":981:1045   */\n  tag_37\n    /* \"#utility.yul\":1037:1044   */\n  dup6\n    /* \"#utility.yul\":1028:1034   */\n  dup3\n    /* \"#utility.yul\":1017:1026   */\n  dup7\n    /* \"#utility.yul\":1013:1035   */\n  add\n    /* \"#utility.yul\":981:1045   */\n  tag_18\n  jump\t// in\ntag_37:\n    /* \"#utility.yul\":971:1045   */\n  swap3\n  pop\n    /* \"#utility.yul\":927:1055   */\n  pop\n    /* \"#utility.yul\":1094:1096   */\n  0x20\n    /* \"#utility.yul\":1120:1184   */\n  tag_38\n    /* \"#utility.yul\":1176:1183   */\n  dup6\n    /* \"#utility.yul\":1167:1173   */\n  dup3\n    /* \"#utility.yul\":1156:1165   */\n  dup7\n    /* \"#utility.yul\":1152:1174   */\n  add\n    /* \"#utility.yul\":1120:1184   */\n  tag_18\n  jump\t// in\ntag_38:\n    /* \"#utility.yul\":1110:1184   */\n  swap2\n  pop\n    /* \"#utility.yul\":1065:1194   */\n  pop\n    /* \"#utility.yul\":694:1201   */\n  swap3\n  pop\n  swap3\n  swap1\n  pop\n  jump\t// out\n    /* \"#utility.yul\":1207:1376   */\ntag_19:\n    /* \"#utility.yul\":1291:1302   */\n  0x00\n    /* \"#utility.yul\":1325:1331   */\n  dup3\n    /* \"#utility.yul\":1320:1323   */\n  dup3\n    /* \"#utility.yul\":1313:1332   */\n  mstore\n    /* \"#utility.yul\":1365:1369   */\n  0x20\n    /* \"#utility.yul\":1360:1363   */\n  dup3\n    /* \"#utility.yul\":1356:1370   */\n  add\n    /* \"#utility.yul\":1341:1370   */\n  swap1\n  pop\n    /* \"#utility.yul\":1207:1376   */\n  swap3\n  swap2\n  pop\n  pop\n  jump\t// out\n    /* \"#utility.yul\":1382:1608   */\ntag_20:\n    /* \"#utility.yul\":1522:1556   */\n  0x4c6120686f726120646520696e6963696f20646562652073657220656e20656c\n    /* \"#utility.yul\":1518:1519   */\n  0x00\n    /* \"#utility.yul\":1510:1516   */\n  dup3\n    /* \"#utility.yul\":1506:1520   */\n  add\n    /* \"#utility.yul\":1499:1557   */\n  mstore\n    /* \"#utility.yul\":1591:1600   */\n  0x2066757475726f00000000000000000000000000000000000000000000000000\n    /* \"#utility.yul\":1586:1588   */\n  0x20\n    /* \"#utility.yul\":1578:1584   */\n  dup3\n    /* \"#utility.yul\":1574:1589   */\n  add\n    /* \"#utility.yul\":1567:1601   */\n  mstore\n    /* \"#utility.yul\":1382:1608   */\n  pop\n  jump\t// out\n    /* \"#utility.yul\":1614:1980   */\ntag_21:\n    /* \"#utility.yul\":1756:1759   */\n  0x00\n    /* \"#utility.yul\":1777:1844   */\n  tag_42\n    /* \"#utility.yul\":1841:1843   */\n  0x27\n    /* \"#utility.yul\":1836:1839   */\n  dup4\n    /* \"#utility.yul\":1777:1844   */\n  tag_19\n  jump\t// in\ntag_42:\n    /* \"#utility.yul\":1770:1844   */\n  swap2\n  pop\n    /* \"#utility.yul\":1853:1946   */\n  tag_43\n    /* \"#utility.yul\":1942:1945   */\n  dup3\n    /* \"#utility.yul\":1853:1946   */\n  tag_20\n  jump\t// in\ntag_43:\n    /* \"#utility.yul\":1971:1973   */\n  0x40\n    /* \"#utility.yul\":1966:1969   */\n  dup3\n    /* \"#utility.yul\":1962:1974   */\n  add\n    /* \"#utility.yul\":1955:1974   */\n  swap1\n  pop\n    /* \"#utility.yul\":1614:1980   */\n  swap2\n  swap1\n  pop\n  jump\t// out\n    /* \"#utility.yul\":1986:2405   */\ntag_8:\n    /* \"#utility.yul\":2152:2156   */\n  0x00\n    /* \"#utility.yul\":2190:2192   */\n  0x20\n    /* \"#utility.yul\":2179:2188   */\n  dup3\n    /* \"#utility.yul\":2175:2193   */\n  add\n    /* \"#utility.yul\":2167:2193   */\n  swap1\n  pop\n    /* \"#utility.yul\":2239:2248   */\n  dup2\n    /* \"#utility.yul\":2233:2237   */\n  dup2\n    /* \"#utility.yul\":2229:2249   */\n  sub\n    /* \"#utility.yul\":2225:2226   */\n  0x00\n    /* \"#utility.yul\":2214:2223   */\n  dup4\n    /* \"#utility.yul\":2210:2227   */\n  add\n    /* \"#utility.yul\":2203:2250   */\n  mstore\n    /* \"#utility.yul\":2267:2398   */\n  tag_45\n    /* \"#utility.yul\":2393:2397   */\n  dup2\n    /* \"#utility.yul\":2267:2398   */\n  tag_21\n  jump\t// in\ntag_45:\n    /* \"#utility.yul\":2259:2398   */\n  swap1\n  pop\n    /* \"#utility.yul\":1986:2405   */\n  swap2\n  swap1\n  pop\n  jump\t// out\n    /* \"#utility.yul\":2411:2654   */\ntag_22:\n    /* \"#utility.yul\":2551:2585   */\n  0x4c6120686f72612064652063696572726520646562652073657220706f737465\n    /* \"#utility.yul\":2547:2548   */\n  0x00\n    /* \"#utility.yul\":2539:2545   */\n  dup3\n    /* \"#utility.yul\":2535:2549   */\n  add\n    /* \"#utility.yul\":2528:2586   */\n  mstore\n    /* \"#utility.yul\":2620:2646   */\n  0x72696f722061206c6120686f726120646520696e6963696f0000000000000000\n    /* \"#utility.yul\":2615:2617   */\n  0x20\n    /* \"#utility.yul\":2607:2613   */\n  dup3\n    /* \"#utility.yul\":2603:2618   */\n  add\n    /* \"#utility.yul\":2596:2647   */\n  mstore\n    /* \"#utility.yul\":2411:2654   */\n  pop\n  jump\t// out\n    /* \"#utility.yul\":2660:3026   */\ntag_23:\n    /* \"#utility.yul\":2802:2805   */\n  0x00\n    /* \"#utility.yul\":2823:2890   */\n  tag_48\n    /* \"#utility.yul\":2887:2889   */\n  0x38\n    /* \"#utility.yul\":2882:2885   */\n  dup4\n    /* \"#utility.yul\":2823:2890   */\n  tag_19\n  jump\t// in\ntag_48:\n    /* \"#utility.yul\":2816:2890   */\n  swap2\n  pop\n    /* \"#utility.yul\":2899:2992   */\n  tag_49\n    /* \"#utility.yul\":2988:2991   */\n  dup3\n    /* \"#utility.yul\":2899:2992   */\n  tag_22\n  jump\t// in\ntag_49:\n    /* \"#utility.yul\":3017:3019   */\n  0x40\n    /* \"#utility.yul\":3012:3015   */\n  dup3\n    /* \"#utility.yul\":3008:3020   */\n  add\n    /* \"#utility.yul\":3001:3020   */\n  swap1\n  pop\n    /* \"#utility.yul\":2660:3026   */\n  swap2\n  swap1\n  pop\n  jump\t// out\n    /* \"#utility.yul\":3032:3451   */\ntag_11:\n    /* \"#utility.yul\":3198:3202   */\n  0x00\n    /* \"#utility.yul\":3236:3238   */\n  0x20\n    /* \"#utility.yul\":3225:3234   */\n  dup3\n    /* \"#utility.yul\":3221:3239   */\n  add\n    /* \"#utility.yul\":3213:3239   */\n  swap1\n  pop\n    /* \"#utility.yul\":3285:3294   */\n  dup2\n    /* \"#utility.yul\":3279:3283   */\n  dup2\n    /* \"#utility.yul\":3275:3295   */\n  sub\n    /* \"#utility.yul\":3271:3272   */\n  0x00\n    /* \"#utility.yul\":3260:3269   */\n  dup4\n    /* \"#utility.yul\":3256:3273   */\n  add\n    /* \"#utility.yul\":3249:3296   */\n  mstore\n    /* \"#utility.yul\":3313:3444   */\n  tag_51\n    /* \"#utility.yul\":3439:3443   */\n  dup2\n    /* \"#utility.yul\":3313:3444   */\n  tag_23\n  jump\t// in\ntag_51:\n    /* \"#utility.yul\":3305:3444   */\n  swap1\n  pop\n    /* \"#utility.yul\":3032:3451   */\n  swap2\n  swap1\n  pop\n  jump\t// out\n    /* \"contracts/0_ICO/test.sol\":63:536  contract MiContratoICO {... */\ntag_12:\n  dataSize(sub_0)\n  dup1\n  dataOffset(sub_0)\n  0x00\n  codecopy\n  0x00\n  return\nstop\n\nsub_0: assembly {\n        /* \"contracts/0_ICO/test.sol\":63:536  contract MiContratoICO {... */\n      mstore(0x40, 0x80)\n      callvalue\n      dup1\n      iszero\n      tag_1\n      jumpi\n      0x00\n      dup1\n      revert\n    tag_1:\n      pop\n      jumpi(tag_2, lt(calldatasize, 0x04))\n      shr(0xe0, calldataload(0x00))\n      dup1\n      0x4b6753bc\n      eq\n      tag_3\n      jumpi\n      dup1\n      0xb7a8807c\n      eq\n      tag_4\n      jumpi\n    tag_2:\n      0x00\n      dup1\n      revert\n        /* \"contracts/0_ICO/test.sol\":126:152  uint256 public closingTime */\n    tag_3:\n      tag_5\n      tag_6\n      jump\t// in\n    tag_5:\n      mload(0x40)\n      tag_7\n      swap2\n      swap1\n      tag_8\n      jump\t// in\n    tag_7:\n      mload(0x40)\n      dup1\n      swap2\n      sub\n      swap1\n      return\n        /* \"contracts/0_ICO/test.sol\":93:119  uint256 public openingTime */\n    tag_4:\n      tag_9\n      tag_10\n      jump\t// in\n    tag_9:\n      mload(0x40)\n      tag_11\n      swap2\n      swap1\n      tag_8\n      jump\t// in\n    tag_11:\n      mload(0x40)\n      dup1\n      swap2\n      sub\n      swap1\n      return\n        /* \"contracts/0_ICO/test.sol\":126:152  uint256 public closingTime */\n    tag_6:\n      sload(0x01)\n      dup2\n      jump\t// out\n        /* \"contracts/0_ICO/test.sol\":93:119  uint256 public openingTime */\n    tag_10:\n      sload(0x00)\n      dup2\n      jump\t// out\n        /* \"#utility.yul\":7:84   */\n    tag_12:\n        /* \"#utility.yul\":44:51   */\n      0x00\n        /* \"#utility.yul\":73:78   */\n      dup2\n        /* \"#utility.yul\":62:78   */\n      swap1\n      pop\n        /* \"#utility.yul\":7:84   */\n      swap2\n      swap1\n      pop\n      jump\t// out\n        /* \"#utility.yul\":90:208   */\n    tag_13:\n        /* \"#utility.yul\":177:201   */\n      tag_17\n        /* \"#utility.yul\":195:200   */\n      dup2\n        /* \"#utility.yul\":177:201   */\n      tag_12\n      jump\t// in\n    tag_17:\n        /* \"#utility.yul\":172:175   */\n      dup3\n        /* \"#utility.yul\":165:202   */\n      mstore\n        /* \"#utility.yul\":90:208   */\n      pop\n      pop\n      jump\t// out\n        /* \"#utility.yul\":214:436   */\n    tag_8:\n        /* \"#utility.yul\":307:311   */\n      0x00\n        /* \"#utility.yul\":345:347   */\n      0x20\n        /* \"#utility.yul\":334:343   */\n      dup3\n        /* \"#utility.yul\":330:348   */\n      add\n        /* \"#utility.yul\":322:348   */\n      swap1\n      pop\n        /* \"#utility.yul\":358:429   */\n      tag_19\n        /* \"#utility.yul\":426:427   */\n      0x00\n        /* \"#utility.yul\":415:424   */\n      dup4\n        /* \"#utility.yul\":411:428   */\n      add\n        /* \"#utility.yul\":402:408   */\n      dup5\n        /* \"#utility.yul\":358:429   */\n      tag_13\n      jump\t// in\n    tag_19:\n        /* \"#utility.yul\":214:436   */\n      swap3\n      swap2\n      pop\n      pop\n      jump\t// out\n\n    auxdata: 0xa2646970667358221220efd662617823813e36058bfa3192096a28c1b979f7d8caf0eb92b5a52c678a5e64736f6c63430008190033\n}\n",
				"bytecode": {
					"linkReferences": {},
					"object": "608060405234801561000f575f80fd5b5060405161034d38038061034d83398181016040528101906100319190610101565b42821015610074576040517f08c379a000000000000000000000000000000000000000000000000000000000815260040161006b906101bf565b60405180910390fd5b8181116100b6576040517f08c379a00000000000000000000000000000000000000000000000000000000081526004016100ad9061024d565b60405180910390fd5b815f8190555080600181905550505061026b565b5f80fd5b5f819050919050565b6100e0816100ce565b81146100ea575f80fd5b50565b5f815190506100fb816100d7565b92915050565b5f8060408385031215610117576101166100ca565b5b5f610124858286016100ed565b9250506020610135858286016100ed565b9150509250929050565b5f82825260208201905092915050565b7f4c6120686f726120646520696e6963696f20646562652073657220656e20656c5f8201527f2066757475726f00000000000000000000000000000000000000000000000000602082015250565b5f6101a960278361013f565b91506101b48261014f565b604082019050919050565b5f6020820190508181035f8301526101d68161019d565b9050919050565b7f4c6120686f72612064652063696572726520646562652073657220706f7374655f8201527f72696f722061206c6120686f726120646520696e6963696f0000000000000000602082015250565b5f61023760388361013f565b9150610242826101dd565b604082019050919050565b5f6020820190508181035f8301526102648161022b565b9050919050565b60d6806102775f395ff3fe6080604052348015600e575f80fd5b50600436106030575f3560e01c80634b6753bc146034578063b7a8807c14604e575b5f80fd5b603a6068565b604051604591906089565b60405180910390f35b6054606e565b604051605f91906089565b60405180910390f35b60015481565b5f5481565b5f819050919050565b6083816073565b82525050565b5f602082019050609a5f830184607c565b9291505056fea2646970667358221220efd662617823813e36058bfa3192096a28c1b979f7d8caf0eb92b5a52c678a5e64736f6c63430008190033",
					"opcodes": "PUSH1 0x80 PUSH1 0x40 MSTORE CALLVALUE DUP1 ISZERO PUSH2 0xF JUMPI PUSH0 DUP1 REVERT JUMPDEST POP PUSH1 0x40 MLOAD PUSH2 0x34D CODESIZE SUB DUP1 PUSH2 0x34D DUP4 CODECOPY DUP2 DUP2 ADD PUSH1 0x40 MSTORE DUP2 ADD SWAP1 PUSH2 0x31 SWAP2 SWAP1 PUSH2 0x101 JUMP JUMPDEST TIMESTAMP DUP3 LT ISZERO PUSH2 0x74 JUMPI PUSH1 0x40 MLOAD PUSH32 0x8C379A000000000000000000000000000000000000000000000000000000000 DUP2 MSTORE PUSH1 0x4 ADD PUSH2 0x6B SWAP1 PUSH2 0x1BF JUMP JUMPDEST PUSH1 0x40 MLOAD DUP1 SWAP2 SUB SWAP1 REVERT JUMPDEST DUP2 DUP2 GT PUSH2 0xB6 JUMPI PUSH1 0x40 MLOAD PUSH32 0x8C379A000000000000000000000000000000000000000000000000000000000 DUP2 MSTORE PUSH1 0x4 ADD PUSH2 0xAD SWAP1 PUSH2 0x24D JUMP JUMPDEST PUSH1 0x40 MLOAD DUP1 SWAP2 SUB SWAP1 REVERT JUMPDEST DUP2 PUSH0 DUP2 SWAP1 SSTORE POP DUP1 PUSH1 0x1 DUP2 SWAP1 SSTORE POP POP POP PUSH2 0x26B JUMP JUMPDEST PUSH0 DUP1 REVERT JUMPDEST PUSH0 DUP2 SWAP1 POP SWAP2 SWAP1 POP JUMP JUMPDEST PUSH2 0xE0 DUP2 PUSH2 0xCE JUMP JUMPDEST DUP2 EQ PUSH2 0xEA JUMPI PUSH0 DUP1 REVERT JUMPDEST POP JUMP JUMPDEST PUSH0 DUP2 MLOAD SWAP1 POP PUSH2 0xFB DUP2 PUSH2 0xD7 JUMP JUMPDEST SWAP3 SWAP2 POP POP JUMP JUMPDEST PUSH0 DUP1 PUSH1 0x40 DUP4 DUP6 SUB SLT ISZERO PUSH2 0x117 JUMPI PUSH2 0x116 PUSH2 0xCA JUMP JUMPDEST JUMPDEST PUSH0 PUSH2 0x124 DUP6 DUP3 DUP7 ADD PUSH2 0xED JUMP JUMPDEST SWAP3 POP POP PUSH1 0x20 PUSH2 0x135 DUP6 DUP3 DUP7 ADD PUSH2 0xED JUMP JUMPDEST SWAP2 POP POP SWAP3 POP SWAP3 SWAP1 POP JUMP JUMPDEST PUSH0 DUP3 DUP3 MSTORE PUSH1 0x20 DUP3 ADD SWAP1 POP SWAP3 SWAP2 POP POP JUMP JUMPDEST PUSH32 0x4C6120686F726120646520696E6963696F20646562652073657220656E20656C PUSH0 DUP3 ADD MSTORE PUSH32 0x2066757475726F00000000000000000000000000000000000000000000000000 PUSH1 0x20 DUP3 ADD MSTORE POP JUMP JUMPDEST PUSH0 PUSH2 0x1A9 PUSH1 0x27 DUP4 PUSH2 0x13F JUMP JUMPDEST SWAP2 POP PUSH2 0x1B4 DUP3 PUSH2 0x14F JUMP JUMPDEST PUSH1 0x40 DUP3 ADD SWAP1 POP SWAP2 SWAP1 POP JUMP JUMPDEST PUSH0 PUSH1 0x20 DUP3 ADD SWAP1 POP DUP2 DUP2 SUB PUSH0 DUP4 ADD MSTORE PUSH2 0x1D6 DUP2 PUSH2 0x19D JUMP JUMPDEST SWAP1 POP SWAP2 SWAP1 POP JUMP JUMPDEST PUSH32 0x4C6120686F72612064652063696572726520646562652073657220706F737465 PUSH0 DUP3 ADD MSTORE PUSH32 0x72696F722061206C6120686F726120646520696E6963696F0000000000000000 PUSH1 0x20 DUP3 ADD MSTORE POP JUMP JUMPDEST PUSH0 PUSH2 0x237 PUSH1 0x38 DUP4 PUSH2 0x13F JUMP JUMPDEST SWAP2 POP PUSH2 0x242 DUP3 PUSH2 0x1DD JUMP JUMPDEST PUSH1 0x40 DUP3 ADD SWAP1 POP SWAP2 SWAP1 POP JUMP JUMPDEST PUSH0 PUSH1 0x20 DUP3 ADD SWAP1 POP DUP2 DUP2 SUB PUSH0 DUP4 ADD MSTORE PUSH2 0x264 DUP2 PUSH2 0x22B JUMP JUMPDEST SWAP1 POP SWAP2 SWAP1 POP JUMP JUMPDEST PUSH1 0xD6 DUP1 PUSH2 0x277 PUSH0 CODECOPY PUSH0 RETURN INVALID PUSH1 0x80 PUSH1 0x40 MSTORE CALLVALUE DUP1 ISZERO PUSH1 0xE JUMPI PUSH0 DUP1 REVERT JUMPDEST POP PUSH1 0x4 CALLDATASIZE LT PUSH1 0x30 JUMPI PUSH0 CALLDATALOAD PUSH1 0xE0 SHR DUP1 PUSH4 0x4B6753BC EQ PUSH1 0x34 JUMPI DUP1 PUSH4 0xB7A8807C EQ PUSH1 0x4E JUMPI JUMPDEST PUSH0 DUP1 REVERT JUMPDEST PUSH1 0x3A PUSH1 0x68 JUMP JUMPDEST PUSH1 0x40 MLOAD PUSH1 0x45 SWAP2 SWAP1 PUSH1 0x89 JUMP JUMPDEST PUSH1 0x40 MLOAD DUP1 SWAP2 SUB SWAP1 RETURN JUMPDEST PUSH1 0x54 PUSH1 0x6E JUMP JUMPDEST PUSH1 0x40 MLOAD PUSH1 0x5F SWAP2 SWAP1 PUSH1 0x89 JUMP JUMPDEST PUSH1 0x40 MLOAD DUP1 SWAP2 SUB SWAP1 RETURN JUMPDEST PUSH1 0x1 SLOAD DUP2 JUMP JUMPDEST PUSH0 SLOAD DUP2 JUMP JUMPDEST PUSH0 DUP2 SWAP1 POP SWAP2 SWAP1 POP JUMP JUMPDEST PUSH1 0x83 DUP2 PUSH1 0x73 JUMP JUMPDEST DUP3 MSTORE POP POP JUMP JUMPDEST PUSH0 PUSH1 0x20 DUP3 ADD SWAP1 POP PUSH1 0x9A PUSH0 DUP4 ADD DUP5 PUSH1 0x7C JUMP JUMPDEST SWAP3 SWAP2 POP POP JUMP INVALID LOG2 PUSH5 0x6970667358 0x22 SLT KECCAK256 0xEF 0xD6 PUSH3 0x617823 DUP2 RETURNDATACOPY CALLDATASIZE SDIV DUP12 STATICCALL BALANCE SWAP3 MULMOD PUSH11 0x28C1B979F7D8CAF0EB92B5 0xA5 0x2C PUSH8 0x8A5E64736F6C6343 STOP ADDMOD NOT STOP CALLER "
				},
				"gasEstimates": {
					"creation": {
						"codeDepositCost": "42800",
						"executionCost": "infinite",
						"totalCost": "infinite"
					},
					"external": {
						"closingTime()": "2403",
						"openingTime()": "2424"
					}
				},
				"methodIdentifiers": {
					"closingTime()": "4b6753bc",
					"openingTime()": "b7a8807c"
				}
			},
			"storageLayout": {
				"storage": [
					{
						"astId": 3,
						"contract": "contracts/0_ICO/test.sol:MiContratoICO",
						"label": "openingTime",
						"offset": 0,
						"slot": "0",
						"type": "t_uint256"
					},
					{
						"astId": 5,
						"contract": "contracts/0_ICO/test.sol:MiContratoICO",
						"label": "closingTime",
						"offset": 0,
						"slot": "1",
						"type": "t_uint256"
					}
				],
				"types": {
					"t_uint256": {
						"encoding": "inplace",
						"label": "uint256",
						"numberOfBytes": "32"
					}
				}
			},
			"userdoc": {
				"kind": "user",
				"methods": {},
				"version": 1
			}
		}
	}
}