{
	"contracts/0_Marketplace NFT/market.sol": {
		"AvMarketplace": {
			"abi": [
				{
					"inputs": [
						{
							"internalType": "uint256",
							"name": "_feePercent",
							"type": "uint256"
						}
					],
					"stateMutability": "nonpayable",
					"type": "constructor"
				},
				{
					"anonymous": false,
					"inputs": [
						{
							"indexed": false,
							"internalType": "uint256",
							"name": "itemId",
							"type": "uint256"
						},
						{
							"indexed": true,
							"internalType": "address",
							"name": "nft",
							"type": "address"
						},
						{
							"indexed": false,
							"internalType": "uint256",
							"name": "tokenId",
							"type": "uint256"
						},
						{
							"indexed": false,
							"internalType": "uint256",
							"name": "price",
							"type": "uint256"
						},
						{
							"indexed": true,
							"internalType": "address",
							"name": "seller",
							"type": "address"
						},
						{
							"indexed": true,
							"internalType": "address",
							"name": "buyer",
							"type": "address"
						}
					],
					"name": "Bought",
					"type": "event"
				},
				{
					"anonymous": false,
					"inputs": [
						{
							"indexed": false,
							"internalType": "uint256",
							"name": "itemId",
							"type": "uint256"
						},
						{
							"indexed": true,
							"internalType": "address",
							"name": "nft",
							"type": "address"
						},
						{
							"indexed": false,
							"internalType": "uint256",
							"name": "tokenId",
							"type": "uint256"
						},
						{
							"indexed": false,
							"internalType": "uint256",
							"name": "price",
							"type": "uint256"
						},
						{
							"indexed": true,
							"internalType": "address",
							"name": "seller",
							"type": "address"
						}
					],
					"name": "Offered",
					"type": "event"
				},
				{
					"inputs": [
						{
							"internalType": "uint256",
							"name": "_itemId",
							"type": "uint256"
						}
					],
					"name": "buyItems",
					"outputs": [],
					"stateMutability": "payable",
					"type": "function"
				},
				{
					"inputs": [],
					"name": "feeAccount",
					"outputs": [
						{
							"internalType": "address payable",
							"name": "",
							"type": "address"
						}
					],
					"stateMutability": "view",
					"type": "function"
				},
				{
					"inputs": [],
					"name": "feePercent",
					"outputs": [
						{
							"internalType": "uint256",
							"name": "",
							"type": "uint256"
						}
					],
					"stateMutability": "view",
					"type": "function"
				},
				{
					"inputs": [],
					"name": "itemCount",
					"outputs": [
						{
							"internalType": "uint256",
							"name": "",
							"type": "uint256"
						}
					],
					"stateMutability": "view",
					"type": "function"
				},
				{
					"inputs": [
						{
							"internalType": "uint256",
							"name": "",
							"type": "uint256"
						}
					],
					"name": "items",
					"outputs": [
						{
							"internalType": "uint256",
							"name": "itemId",
							"type": "uint256"
						},
						{
							"internalType": "contract IERC721",
							"name": "nft",
							"type": "address"
						},
						{
							"internalType": "uint256",
							"name": "tokenId",
							"type": "uint256"
						},
						{
							"internalType": "uint256",
							"name": "price",
							"type": "uint256"
						},
						{
							"internalType": "address payable",
							"name": "seller",
							"type": "address"
						},
						{
							"internalType": "bool",
							"name": "sold",
							"type": "bool"
						}
					],
					"stateMutability": "view",
					"type": "function"
				},
				{
					"inputs": [
						{
							"internalType": "contract IERC721",
							"name": "_nft",
							"type": "address"
						},
						{
							"internalType": "uint256",
							"name": "_tokenId",
							"type": "uint256"
						},
						{
							"internalType": "uint256",
							"name": "_price",
							"type": "uint256"
						}
					],
					"name": "makeItems",
					"outputs": [],
					"stateMutability": "nonpayable",
					"type": "function"
				},
				{
					"inputs": [
						{
							"internalType": "uint256",
							"name": "_itemId",
							"type": "uint256"
						}
					],
					"name": "totalPrice",
					"outputs": [
						{
							"internalType": "uint256",
							"name": "",
							"type": "uint256"
						}
					],
					"stateMutability": "view",
					"type": "function"
				}
			],
			"devdoc": {
				"kind": "dev",
				"methods": {},
				"version": 1
			},
			"evm": {
				"assembly": "    /* \"contracts/0_Marketplace NFT/market.sol\":362:3698  contract AvMarketplace is ReentrancyGuard {... */\n  mstore(0x40, 0xc0)\n    /* \"contracts/0_Marketplace NFT/market.sol\":1473:1590  constructor (uint _feePercent) {... */\n  callvalue\n  dup1\n  iszero\n  tag_1\n  jumpi\n  0x00\n  dup1\n  revert\ntag_1:\n  pop\n  mload(0x40)\n  sub(codesize, bytecodeSize)\n  dup1\n  bytecodeSize\n  dup4\n  codecopy\n  dup2\n  dup2\n  add\n  0x40\n  mstore\n  dup2\n  add\n  swap1\n  tag_2\n  swap2\n  swap1\n  tag_3\n  jump\t// in\ntag_2:\n    /* \"@openzeppelin/contracts@4.5.0/security/ReentrancyGuard.sol\":1701:1702  1 */\n  0x01\n    /* \"@openzeppelin/contracts@4.5.0/security/ReentrancyGuard.sol\":1806:1813  _status */\n  0x00\n    /* \"@openzeppelin/contracts@4.5.0/security/ReentrancyGuard.sol\":1806:1828  _status = _NOT_ENTERED */\n  dup2\n  swap1\n  sstore\n  pop\n    /* \"contracts/0_Marketplace NFT/market.sol\":1536:1546  msg.sender */\n  caller\n    /* \"contracts/0_Marketplace NFT/market.sol\":1515:1547  feeAccount = payable(msg.sender) */\n  0xffffffffffffffffffffffffffffffffffffffff\n  and\n  0x80\n  dup2\n  0xffffffffffffffffffffffffffffffffffffffff\n  and\n  dup2\n  mstore\n  pop\n  pop\n    /* \"contracts/0_Marketplace NFT/market.sol\":1571:1582  _feePercent */\n  dup1\n    /* \"contracts/0_Marketplace NFT/market.sol\":1558:1582  feePercent = _feePercent */\n  0xa0\n  dup2\n  dup2\n  mstore\n  pop\n  pop\n    /* \"contracts/0_Marketplace NFT/market.sol\":1473:1590  constructor (uint _feePercent) {... */\n  pop\n    /* \"contracts/0_Marketplace NFT/market.sol\":362:3698  contract AvMarketplace is ReentrancyGuard {... */\n  jump(tag_8)\n    /* \"#utility.yul\":88:205   */\ntag_10:\n    /* \"#utility.yul\":197:198   */\n  0x00\n    /* \"#utility.yul\":194:195   */\n  dup1\n    /* \"#utility.yul\":187:199   */\n  revert\n    /* \"#utility.yul\":334:411   */\ntag_12:\n    /* \"#utility.yul\":371:378   */\n  0x00\n    /* \"#utility.yul\":400:405   */\n  dup2\n    /* \"#utility.yul\":389:405   */\n  swap1\n  pop\n    /* \"#utility.yul\":334:411   */\n  swap2\n  swap1\n  pop\n  jump\t// out\n    /* \"#utility.yul\":417:539   */\ntag_13:\n    /* \"#utility.yul\":490:514   */\n  tag_21\n    /* \"#utility.yul\":508:513   */\n  dup2\n    /* \"#utility.yul\":490:514   */\n  tag_12\n  jump\t// in\ntag_21:\n    /* \"#utility.yul\":483:488   */\n  dup2\n    /* \"#utility.yul\":480:515   */\n  eq\n    /* \"#utility.yul\":470:533   */\n  tag_22\n  jumpi\n    /* \"#utility.yul\":529:530   */\n  0x00\n    /* \"#utility.yul\":526:527   */\n  dup1\n    /* \"#utility.yul\":519:531   */\n  revert\n    /* \"#utility.yul\":470:533   */\ntag_22:\n    /* \"#utility.yul\":417:539   */\n  pop\n  jump\t// out\n    /* \"#utility.yul\":545:688   */\ntag_14:\n    /* \"#utility.yul\":602:607   */\n  0x00\n    /* \"#utility.yul\":633:639   */\n  dup2\n    /* \"#utility.yul\":627:640   */\n  mload\n    /* \"#utility.yul\":618:640   */\n  swap1\n  pop\n    /* \"#utility.yul\":649:682   */\n  tag_24\n    /* \"#utility.yul\":676:681   */\n  dup2\n    /* \"#utility.yul\":649:682   */\n  tag_13\n  jump\t// in\ntag_24:\n    /* \"#utility.yul\":545:688   */\n  swap3\n  swap2\n  pop\n  pop\n  jump\t// out\n    /* \"#utility.yul\":694:1045   */\ntag_3:\n    /* \"#utility.yul\":764:770   */\n  0x00\n    /* \"#utility.yul\":813:815   */\n  0x20\n    /* \"#utility.yul\":801:810   */\n  dup3\n    /* \"#utility.yul\":792:799   */\n  dup5\n    /* \"#utility.yul\":788:811   */\n  sub\n    /* \"#utility.yul\":784:816   */\n  slt\n    /* \"#utility.yul\":781:900   */\n  iszero\n  tag_26\n  jumpi\n    /* \"#utility.yul\":819:898   */\n  tag_27\n  tag_10\n  jump\t// in\ntag_27:\n    /* \"#utility.yul\":781:900   */\ntag_26:\n    /* \"#utility.yul\":939:940   */\n  0x00\n    /* \"#utility.yul\":964:1028   */\n  tag_28\n    /* \"#utility.yul\":1020:1027   */\n  dup5\n    /* \"#utility.yul\":1011:1017   */\n  dup3\n    /* \"#utility.yul\":1000:1009   */\n  dup6\n    /* \"#utility.yul\":996:1018   */\n  add\n    /* \"#utility.yul\":964:1028   */\n  tag_14\n  jump\t// in\ntag_28:\n    /* \"#utility.yul\":954:1028   */\n  swap2\n  pop\n    /* \"#utility.yul\":910:1038   */\n  pop\n    /* \"#utility.yul\":694:1045   */\n  swap3\n  swap2\n  pop\n  pop\n  jump\t// out\n    /* \"contracts/0_Marketplace NFT/market.sol\":362:3698  contract AvMarketplace is ReentrancyGuard {... */\ntag_8:\n  mload(0x80)\n  mload(0xa0)\n  codecopy(0x00, dataOffset(sub_0), dataSize(sub_0))\n  0x00\n  assignImmutable(\"0xca1c98d2cee18ab5da51a9df7bbf45ca91ab83c708e48aed82f5115320306ab4\")\n  0x00\n  assignImmutable(\"0x9abd569a0444be7ce52d46a7fb79009940c0c0442116f15017290ff13cb4450c\")\n  return(0x00, dataSize(sub_0))\nstop\n\nsub_0: assembly {\n        /* \"contracts/0_Marketplace NFT/market.sol\":362:3698  contract AvMarketplace is ReentrancyGuard {... */\n      mstore(0x40, 0x80)\n      jumpi(tag_1, lt(calldatasize, 0x04))\n      shr(0xe0, calldataload(0x00))\n      dup1\n      0x65e17c9d\n      gt\n      tag_9\n      jumpi\n      dup1\n      0x65e17c9d\n      eq\n      tag_5\n      jumpi\n      dup1\n      0x6bfb0d01\n      eq\n      tag_6\n      jumpi\n      dup1\n      0x7fd6f15c\n      eq\n      tag_7\n      jumpi\n      dup1\n      0xbfb231d2\n      eq\n      tag_8\n      jumpi\n      jump(tag_1)\n    tag_9:\n      dup1\n      0x02d44b50\n      eq\n      tag_2\n      jumpi\n      dup1\n      0x221f2285\n      eq\n      tag_3\n      jumpi\n      dup1\n      0x631f6d07\n      eq\n      tag_4\n      jumpi\n    tag_1:\n      0x00\n      dup1\n      revert\n        /* \"contracts/0_Marketplace NFT/market.sol\":1648:2336  function makeItems (IERC721 _nft, uint _tokenId, uint _price) external {... */\n    tag_2:\n      callvalue\n      dup1\n      iszero\n      tag_10\n      jumpi\n      0x00\n      dup1\n      revert\n    tag_10:\n      pop\n      tag_11\n      0x04\n      dup1\n      calldatasize\n      sub\n      dup2\n      add\n      swap1\n      tag_12\n      swap2\n      swap1\n      tag_13\n      jump\t// in\n    tag_12:\n      tag_14\n      jump\t// in\n    tag_11:\n      stop\n        /* \"contracts/0_Marketplace NFT/market.sol\":3561:3695  function totalPrice (uint _itemId) public view returns (uint){... */\n    tag_3:\n      callvalue\n      dup1\n      iszero\n      tag_15\n      jumpi\n      0x00\n      dup1\n      revert\n    tag_15:\n      pop\n      tag_16\n      0x04\n      dup1\n      calldatasize\n      sub\n      dup2\n      add\n      swap1\n      tag_17\n      swap2\n      swap1\n      tag_18\n      jump\t// in\n    tag_17:\n      tag_19\n      jump\t// in\n    tag_16:\n      mload(0x40)\n      tag_20\n      swap2\n      swap1\n      tag_21\n      jump\t// in\n    tag_20:\n      mload(0x40)\n      dup1\n      swap2\n      sub\n      swap1\n      return\n        /* \"contracts/0_Marketplace NFT/market.sol\":2392:3491  function buyItems (uint _itemId)external payable nonReentrant {... */\n    tag_4:\n      tag_22\n      0x04\n      dup1\n      calldatasize\n      sub\n      dup2\n      add\n      swap1\n      tag_23\n      swap2\n      swap1\n      tag_18\n      jump\t// in\n    tag_23:\n      tag_24\n      jump\t// in\n    tag_22:\n      stop\n        /* \"contracts/0_Marketplace NFT/market.sol\":547:590  address payable public immutable feeAccount */\n    tag_5:\n      callvalue\n      dup1\n      iszero\n      tag_25\n      jumpi\n      0x00\n      dup1\n      revert\n    tag_25:\n      pop\n      tag_26\n      tag_27\n      jump\t// in\n    tag_26:\n      mload(0x40)\n      tag_28\n      swap2\n      swap1\n      tag_29\n      jump\t// in\n    tag_28:\n      mload(0x40)\n      dup1\n      swap2\n      sub\n      swap1\n      return\n        /* \"contracts/0_Marketplace NFT/market.sol\":749:770  uint public itemCount */\n    tag_6:\n      callvalue\n      dup1\n      iszero\n      tag_30\n      jumpi\n      0x00\n      dup1\n      revert\n    tag_30:\n      pop\n      tag_31\n      tag_32\n      jump\t// in\n    tag_31:\n      mload(0x40)\n      tag_33\n      swap2\n      swap1\n      tag_21\n      jump\t// in\n    tag_33:\n      mload(0x40)\n      dup1\n      swap2\n      sub\n      swap1\n      return\n        /* \"contracts/0_Marketplace NFT/market.sol\":665:697  uint public immutable feePercent */\n    tag_7:\n      callvalue\n      dup1\n      iszero\n      tag_34\n      jumpi\n      0x00\n      dup1\n      revert\n    tag_34:\n      pop\n      tag_35\n      tag_36\n      jump\t// in\n    tag_35:\n      mload(0x40)\n      tag_37\n      swap2\n      swap1\n      tag_21\n      jump\t// in\n    tag_37:\n      mload(0x40)\n      dup1\n      swap2\n      sub\n      swap1\n      return\n        /* \"contracts/0_Marketplace NFT/market.sol\":1042:1077  mapping (uint => Item) public items */\n    tag_8:\n      callvalue\n      dup1\n      iszero\n      tag_38\n      jumpi\n      0x00\n      dup1\n      revert\n    tag_38:\n      pop\n      tag_39\n      0x04\n      dup1\n      calldatasize\n      sub\n      dup2\n      add\n      swap1\n      tag_40\n      swap2\n      swap1\n      tag_18\n      jump\t// in\n    tag_40:\n      tag_41\n      jump\t// in\n    tag_39:\n      mload(0x40)\n      tag_42\n      swap7\n      swap6\n      swap5\n      swap4\n      swap3\n      swap2\n      swap1\n      tag_43\n      jump\t// in\n    tag_42:\n      mload(0x40)\n      dup1\n      swap2\n      sub\n      swap1\n      return\n        /* \"contracts/0_Marketplace NFT/market.sol\":1648:2336  function makeItems (IERC721 _nft, uint _tokenId, uint _price) external {... */\n    tag_14:\n        /* \"contracts/0_Marketplace NFT/market.sol\":1745:1746  0 */\n      0x00\n        /* \"contracts/0_Marketplace NFT/market.sol\":1738:1744  _price */\n      dup2\n        /* \"contracts/0_Marketplace NFT/market.sol\":1738:1746  _price>0 */\n      gt\n        /* \"contracts/0_Marketplace NFT/market.sol\":1730:1747  require(_price>0) */\n      tag_45\n      jumpi\n      0x00\n      dup1\n      revert\n    tag_45:\n        /* \"contracts/0_Marketplace NFT/market.sol\":1758:1767  itemCount */\n      0x01\n      0x00\n        /* \"contracts/0_Marketplace NFT/market.sol\":1758:1769  itemCount++ */\n      dup2\n      sload\n      dup1\n      swap3\n      swap2\n      swap1\n      tag_46\n      swap1\n      tag_47\n      jump\t// in\n    tag_46:\n      swap2\n      swap1\n      pop\n      sstore\n      pop\n        /* \"contracts/0_Marketplace NFT/market.sol\":1851:1855  _nft */\n      dup3\n        /* \"contracts/0_Marketplace NFT/market.sol\":1851:1868  _nft.transferFrom */\n      0xffffffffffffffffffffffffffffffffffffffff\n      and\n      0x23b872dd\n        /* \"contracts/0_Marketplace NFT/market.sol\":1869:1879  msg.sender */\n      caller\n        /* \"contracts/0_Marketplace NFT/market.sol\":1889:1893  this */\n      address\n        /* \"contracts/0_Marketplace NFT/market.sol\":1896:1904  _tokenId */\n      dup6\n        /* \"contracts/0_Marketplace NFT/market.sol\":1851:1905  _nft.transferFrom(msg.sender, address(this), _tokenId) */\n      mload(0x40)\n      dup5\n      0xffffffff\n      and\n      0xe0\n      shl\n      dup2\n      mstore\n      0x04\n      add\n      tag_48\n      swap4\n      swap3\n      swap2\n      swap1\n      tag_49\n      jump\t// in\n    tag_48:\n      0x00\n      mload(0x40)\n      dup1\n      dup4\n      sub\n      dup2\n      0x00\n      dup8\n      dup1\n      extcodesize\n      iszero\n      dup1\n      iszero\n      tag_50\n      jumpi\n      0x00\n      dup1\n      revert\n    tag_50:\n      pop\n      gas\n      call\n      iszero\n      dup1\n      iszero\n      tag_52\n      jumpi\n      returndatasize\n      0x00\n      dup1\n      returndatacopy\n      revert(0x00, returndatasize)\n    tag_52:\n      pop\n      pop\n      pop\n      pop\n        /* \"contracts/0_Marketplace NFT/market.sol\":1980:2139  Item(... */\n      mload(0x40)\n      dup1\n      0xc0\n      add\n      0x40\n      mstore\n      dup1\n        /* \"contracts/0_Marketplace NFT/market.sol\":1999:2008  itemCount */\n      sload(0x01)\n        /* \"contracts/0_Marketplace NFT/market.sol\":1980:2139  Item(... */\n      dup2\n      mstore\n      0x20\n      add\n        /* \"contracts/0_Marketplace NFT/market.sol\":2023:2027  _nft */\n      dup5\n        /* \"contracts/0_Marketplace NFT/market.sol\":1980:2139  Item(... */\n      0xffffffffffffffffffffffffffffffffffffffff\n      and\n      dup2\n      mstore\n      0x20\n      add\n        /* \"contracts/0_Marketplace NFT/market.sol\":2042:2050  _tokenId */\n      dup4\n        /* \"contracts/0_Marketplace NFT/market.sol\":1980:2139  Item(... */\n      dup2\n      mstore\n      0x20\n      add\n        /* \"contracts/0_Marketplace NFT/market.sol\":2065:2071  _price */\n      dup3\n        /* \"contracts/0_Marketplace NFT/market.sol\":1980:2139  Item(... */\n      dup2\n      mstore\n      0x20\n      add\n        /* \"contracts/0_Marketplace NFT/market.sol\":2095:2105  msg.sender */\n      caller\n        /* \"contracts/0_Marketplace NFT/market.sol\":1980:2139  Item(... */\n      0xffffffffffffffffffffffffffffffffffffffff\n      and\n      dup2\n      mstore\n      0x20\n      add\n        /* \"contracts/0_Marketplace NFT/market.sol\":2121:2126  false */\n      0x00\n        /* \"contracts/0_Marketplace NFT/market.sol\":1980:2139  Item(... */\n      iszero\n      iszero\n      dup2\n      mstore\n      pop\n        /* \"contracts/0_Marketplace NFT/market.sol\":1961:1966  items */\n      0x02\n        /* \"contracts/0_Marketplace NFT/market.sol\":1961:1977  items[itemCount] */\n      0x00\n        /* \"contracts/0_Marketplace NFT/market.sol\":1967:1976  itemCount */\n      sload(0x01)\n        /* \"contracts/0_Marketplace NFT/market.sol\":1961:1977  items[itemCount] */\n      dup2\n      mstore\n      0x20\n      add\n      swap1\n      dup2\n      mstore\n      0x20\n      add\n      0x00\n      keccak256\n        /* \"contracts/0_Marketplace NFT/market.sol\":1961:2139  items[itemCount] = Item(... */\n      0x00\n      dup3\n      add\n      mload\n      dup2\n      0x00\n      add\n      sstore\n      0x20\n      dup3\n      add\n      mload\n      dup2\n      0x01\n      add\n      exp(0x0100, 0x00)\n      dup2\n      sload\n      dup2\n      0xffffffffffffffffffffffffffffffffffffffff\n      mul\n      not\n      and\n      swap1\n      dup4\n      0xffffffffffffffffffffffffffffffffffffffff\n      and\n      mul\n      or\n      swap1\n      sstore\n      pop\n      0x40\n      dup3\n      add\n      mload\n      dup2\n      0x02\n      add\n      sstore\n      0x60\n      dup3\n      add\n      mload\n      dup2\n      0x03\n      add\n      sstore\n      0x80\n      dup3\n      add\n      mload\n      dup2\n      0x04\n      add\n      exp(0x0100, 0x00)\n      dup2\n      sload\n      dup2\n      0xffffffffffffffffffffffffffffffffffffffff\n      mul\n      not\n      and\n      swap1\n      dup4\n      0xffffffffffffffffffffffffffffffffffffffff\n      and\n      mul\n      or\n      swap1\n      sstore\n      pop\n      0xa0\n      dup3\n      add\n      mload\n      dup2\n      0x04\n      add\n      exp(0x0100, 0x14)\n      dup2\n      sload\n      dup2\n      0xff\n      mul\n      not\n      and\n      swap1\n      dup4\n      iszero\n      iszero\n      mul\n      or\n      swap1\n      sstore\n      pop\n      swap1\n      pop\n      pop\n        /* \"contracts/0_Marketplace NFT/market.sol\":2307:2317  msg.sender */\n      caller\n        /* \"contracts/0_Marketplace NFT/market.sol\":2185:2328  Offered(... */\n      0xffffffffffffffffffffffffffffffffffffffff\n      and\n        /* \"contracts/0_Marketplace NFT/market.sol\":2240:2244  _nft */\n      dup4\n        /* \"contracts/0_Marketplace NFT/market.sol\":2185:2328  Offered(... */\n      0xffffffffffffffffffffffffffffffffffffffff\n      and\n      0x655a0cf9c8db81512be9a76dc1c5ae5380b8816ce6ad659cd61b715e2999d59a\n        /* \"contracts/0_Marketplace NFT/market.sol\":2207:2216  itemCount */\n      sload(0x01)\n        /* \"contracts/0_Marketplace NFT/market.sol\":2261:2269  _tokenId */\n      dup6\n        /* \"contracts/0_Marketplace NFT/market.sol\":2285:2291  _price */\n      dup6\n        /* \"contracts/0_Marketplace NFT/market.sol\":2185:2328  Offered(... */\n      mload(0x40)\n      tag_53\n      swap4\n      swap3\n      swap2\n      swap1\n      tag_54\n      jump\t// in\n    tag_53:\n      mload(0x40)\n      dup1\n      swap2\n      sub\n      swap1\n      log3\n        /* \"contracts/0_Marketplace NFT/market.sol\":1648:2336  function makeItems (IERC721 _nft, uint _tokenId, uint _price) external {... */\n      pop\n      pop\n      pop\n      jump\t// out\n        /* \"contracts/0_Marketplace NFT/market.sol\":3561:3695  function totalPrice (uint _itemId) public view returns (uint){... */\n    tag_19:\n        /* \"contracts/0_Marketplace NFT/market.sol\":3617:3621  uint */\n      0x00\n        /* \"contracts/0_Marketplace NFT/market.sol\":3683:3686  100 */\n      0x64\n        /* \"contracts/0_Marketplace NFT/market.sol\":3670:3680  feePercent */\n      immutable(\"0xca1c98d2cee18ab5da51a9df7bbf45ca91ab83c708e48aed82f5115320306ab4\")\n        /* \"contracts/0_Marketplace NFT/market.sol\":3664:3667  100 */\n      0x64\n        /* \"contracts/0_Marketplace NFT/market.sol\":3664:3680  100 + feePercent */\n      tag_56\n      swap2\n      swap1\n      tag_57\n      jump\t// in\n    tag_56:\n        /* \"contracts/0_Marketplace NFT/market.sol\":3642:3647  items */\n      0x02\n        /* \"contracts/0_Marketplace NFT/market.sol\":3642:3656  items[_itemId] */\n      0x00\n        /* \"contracts/0_Marketplace NFT/market.sol\":3648:3655  _itemId */\n      dup6\n        /* \"contracts/0_Marketplace NFT/market.sol\":3642:3656  items[_itemId] */\n      dup2\n      mstore\n      0x20\n      add\n      swap1\n      dup2\n      mstore\n      0x20\n      add\n      0x00\n      keccak256\n        /* \"contracts/0_Marketplace NFT/market.sol\":3642:3662  items[_itemId].price */\n      0x03\n      add\n      sload\n        /* \"contracts/0_Marketplace NFT/market.sol\":3642:3681  items[_itemId].price*(100 + feePercent) */\n      tag_58\n      swap2\n      swap1\n      tag_59\n      jump\t// in\n    tag_58:\n        /* \"contracts/0_Marketplace NFT/market.sol\":3641:3686  (items[_itemId].price*(100 + feePercent))/100 */\n      tag_60\n      swap2\n      swap1\n      tag_61\n      jump\t// in\n    tag_60:\n        /* \"contracts/0_Marketplace NFT/market.sol\":3633:3687  return ((items[_itemId].price*(100 + feePercent))/100) */\n      swap1\n      pop\n        /* \"contracts/0_Marketplace NFT/market.sol\":3561:3695  function totalPrice (uint _itemId) public view returns (uint){... */\n      swap2\n      swap1\n      pop\n      jump\t// out\n        /* \"contracts/0_Marketplace NFT/market.sol\":2392:3491  function buyItems (uint _itemId)external payable nonReentrant {... */\n    tag_24:\n        /* \"@openzeppelin/contracts@4.5.0/security/ReentrancyGuard.sol\":1744:1745  2 */\n      0x02\n        /* \"@openzeppelin/contracts@4.5.0/security/ReentrancyGuard.sol\":2325:2332  _status */\n      sload(0x00)\n        /* \"@openzeppelin/contracts@4.5.0/security/ReentrancyGuard.sol\":2325:2344  _status != _ENTERED */\n      sub\n        /* \"@openzeppelin/contracts@4.5.0/security/ReentrancyGuard.sol\":2317:2380  require(_status != _ENTERED, \"ReentrancyGuard: reentrant call\") */\n      tag_63\n      jumpi\n      mload(0x40)\n      0x08c379a000000000000000000000000000000000000000000000000000000000\n      dup2\n      mstore\n      0x04\n      add\n      tag_64\n      swap1\n      tag_65\n      jump\t// in\n    tag_64:\n      mload(0x40)\n      dup1\n      swap2\n      sub\n      swap1\n      revert\n    tag_63:\n        /* \"@openzeppelin/contracts@4.5.0/security/ReentrancyGuard.sol\":1744:1745  2 */\n      0x02\n        /* \"@openzeppelin/contracts@4.5.0/security/ReentrancyGuard.sol\":2455:2462  _status */\n      0x00\n        /* \"@openzeppelin/contracts@4.5.0/security/ReentrancyGuard.sol\":2455:2473  _status = _ENTERED */\n      dup2\n      swap1\n      sstore\n      pop\n        /* \"contracts/0_Marketplace NFT/market.sol\":2465:2481  uint _totalPrice */\n      0x00\n        /* \"contracts/0_Marketplace NFT/market.sol\":2484:2503  totalPrice(_itemId) */\n      tag_67\n        /* \"contracts/0_Marketplace NFT/market.sol\":2495:2502  _itemId */\n      dup3\n        /* \"contracts/0_Marketplace NFT/market.sol\":2484:2494  totalPrice */\n      tag_19\n        /* \"contracts/0_Marketplace NFT/market.sol\":2484:2503  totalPrice(_itemId) */\n      jump\t// in\n    tag_67:\n        /* \"contracts/0_Marketplace NFT/market.sol\":2465:2503  uint _totalPrice = totalPrice(_itemId) */\n      swap1\n      pop\n        /* \"contracts/0_Marketplace NFT/market.sol\":2514:2531  Item storage item */\n      0x00\n        /* \"contracts/0_Marketplace NFT/market.sol\":2534:2539  items */\n      0x02\n        /* \"contracts/0_Marketplace NFT/market.sol\":2534:2548  items[_itemId] */\n      0x00\n        /* \"contracts/0_Marketplace NFT/market.sol\":2540:2547  _itemId */\n      dup5\n        /* \"contracts/0_Marketplace NFT/market.sol\":2534:2548  items[_itemId] */\n      dup2\n      mstore\n      0x20\n      add\n      swap1\n      dup2\n      mstore\n      0x20\n      add\n      0x00\n      keccak256\n        /* \"contracts/0_Marketplace NFT/market.sol\":2514:2548  Item storage item = items[_itemId] */\n      swap1\n      pop\n        /* \"contracts/0_Marketplace NFT/market.sol\":2621:2622  0 */\n      0x00\n        /* \"contracts/0_Marketplace NFT/market.sol\":2613:2620  _itemId */\n      dup4\n        /* \"contracts/0_Marketplace NFT/market.sol\":2613:2622  _itemId>0 */\n      gt\n        /* \"contracts/0_Marketplace NFT/market.sol\":2613:2644  _itemId>0 && _itemId<=itemCount */\n      dup1\n      iszero\n      tag_68\n      jumpi\n      pop\n        /* \"contracts/0_Marketplace NFT/market.sol\":2635:2644  itemCount */\n      sload(0x01)\n        /* \"contracts/0_Marketplace NFT/market.sol\":2626:2633  _itemId */\n      dup4\n        /* \"contracts/0_Marketplace NFT/market.sol\":2626:2644  _itemId<=itemCount */\n      gt\n      iszero\n        /* \"contracts/0_Marketplace NFT/market.sol\":2613:2644  _itemId>0 && _itemId<=itemCount */\n    tag_68:\n        /* \"contracts/0_Marketplace NFT/market.sol\":2605:2645  require(_itemId>0 && _itemId<=itemCount) */\n      tag_69\n      jumpi\n      0x00\n      dup1\n      revert\n    tag_69:\n        /* \"contracts/0_Marketplace NFT/market.sol\":2678:2689  _totalPrice */\n      dup2\n        /* \"contracts/0_Marketplace NFT/market.sol\":2665:2674  msg.value */\n      callvalue\n        /* \"contracts/0_Marketplace NFT/market.sol\":2665:2689  msg.value >= _totalPrice */\n      lt\n      iszero\n        /* \"contracts/0_Marketplace NFT/market.sol\":2656:2690  require (msg.value >= _totalPrice) */\n      tag_70\n      jumpi\n      0x00\n      dup1\n      revert\n    tag_70:\n        /* \"contracts/0_Marketplace NFT/market.sol\":2711:2715  item */\n      dup1\n        /* \"contracts/0_Marketplace NFT/market.sol\":2711:2720  item.sold */\n      0x04\n      add\n      0x14\n      swap1\n      sload\n      swap1\n      0x0100\n      exp\n      swap1\n      div\n      0xff\n      and\n        /* \"contracts/0_Marketplace NFT/market.sol\":2710:2720  !item.sold */\n      iszero\n        /* \"contracts/0_Marketplace NFT/market.sol\":2701:2721  require (!item.sold) */\n      tag_71\n      jumpi\n      0x00\n      dup1\n      revert\n    tag_71:\n        /* \"contracts/0_Marketplace NFT/market.sol\":2791:2795  item */\n      dup1\n        /* \"contracts/0_Marketplace NFT/market.sol\":2791:2802  item.seller */\n      0x04\n      add\n      0x00\n      swap1\n      sload\n      swap1\n      0x0100\n      exp\n      swap1\n      div\n      0xffffffffffffffffffffffffffffffffffffffff\n      and\n        /* \"contracts/0_Marketplace NFT/market.sol\":2791:2811  item.seller.transfer */\n      0xffffffffffffffffffffffffffffffffffffffff\n      and\n        /* \"contracts/0_Marketplace NFT/market.sol\":2791:2823  item.seller.transfer(item.price) */\n      0x08fc\n        /* \"contracts/0_Marketplace NFT/market.sol\":2812:2816  item */\n      dup3\n        /* \"contracts/0_Marketplace NFT/market.sol\":2812:2822  item.price */\n      0x03\n      add\n      sload\n        /* \"contracts/0_Marketplace NFT/market.sol\":2791:2823  item.seller.transfer(item.price) */\n      swap1\n      dup2\n      iszero\n      mul\n      swap1\n      mload(0x40)\n      0x00\n      mload(0x40)\n      dup1\n      dup4\n      sub\n      dup2\n      dup6\n      dup9\n      dup9\n      call\n      swap4\n      pop\n      pop\n      pop\n      pop\n      iszero\n      dup1\n      iszero\n      tag_73\n      jumpi\n      returndatasize\n      0x00\n      dup1\n      returndatacopy\n      revert(0x00, returndatasize)\n    tag_73:\n      pop\n        /* \"contracts/0_Marketplace NFT/market.sol\":2901:2905  item */\n      dup1\n        /* \"contracts/0_Marketplace NFT/market.sol\":2901:2912  item.seller */\n      0x04\n      add\n      0x00\n      swap1\n      sload\n      swap1\n      0x0100\n      exp\n      swap1\n      div\n      0xffffffffffffffffffffffffffffffffffffffff\n      and\n        /* \"contracts/0_Marketplace NFT/market.sol\":2901:2921  item.seller.transfer */\n      0xffffffffffffffffffffffffffffffffffffffff\n      and\n        /* \"contracts/0_Marketplace NFT/market.sol\":2901:2933  item.seller.transfer(item.price) */\n      0x08fc\n        /* \"contracts/0_Marketplace NFT/market.sol\":2922:2926  item */\n      dup3\n        /* \"contracts/0_Marketplace NFT/market.sol\":2922:2932  item.price */\n      0x03\n      add\n      sload\n        /* \"contracts/0_Marketplace NFT/market.sol\":2901:2933  item.seller.transfer(item.price) */\n      swap1\n      dup2\n      iszero\n      mul\n      swap1\n      mload(0x40)\n      0x00\n      mload(0x40)\n      dup1\n      dup4\n      sub\n      dup2\n      dup6\n      dup9\n      dup9\n      call\n      swap4\n      pop\n      pop\n      pop\n      pop\n      iszero\n      dup1\n      iszero\n      tag_75\n      jumpi\n      returndatasize\n      0x00\n      dup1\n      returndatacopy\n      revert(0x00, returndatasize)\n    tag_75:\n      pop\n        /* \"contracts/0_Marketplace NFT/market.sol\":3001:3011  feeAccount */\n      immutable(\"0x9abd569a0444be7ce52d46a7fb79009940c0c0442116f15017290ff13cb4450c\")\n        /* \"contracts/0_Marketplace NFT/market.sol\":3001:3020  feeAccount.transfer */\n      0xffffffffffffffffffffffffffffffffffffffff\n      and\n        /* \"contracts/0_Marketplace NFT/market.sol\":3001:3046  feeAccount.transfer(_totalPrice - feePercent) */\n      0x08fc\n        /* \"contracts/0_Marketplace NFT/market.sol\":3035:3045  feePercent */\n      immutable(\"0xca1c98d2cee18ab5da51a9df7bbf45ca91ab83c708e48aed82f5115320306ab4\")\n        /* \"contracts/0_Marketplace NFT/market.sol\":3021:3032  _totalPrice */\n      dup5\n        /* \"contracts/0_Marketplace NFT/market.sol\":3021:3045  _totalPrice - feePercent */\n      tag_76\n      swap2\n      swap1\n      tag_77\n      jump\t// in\n    tag_76:\n        /* \"contracts/0_Marketplace NFT/market.sol\":3001:3046  feeAccount.transfer(_totalPrice - feePercent) */\n      swap1\n      dup2\n      iszero\n      mul\n      swap1\n      mload(0x40)\n      0x00\n      mload(0x40)\n      dup1\n      dup4\n      sub\n      dup2\n      dup6\n      dup9\n      dup9\n      call\n      swap4\n      pop\n      pop\n      pop\n      pop\n      iszero\n      dup1\n      iszero\n      tag_79\n      jumpi\n      returndatasize\n      0x00\n      dup1\n      returndatacopy\n      revert(0x00, returndatasize)\n    tag_79:\n      pop\n        /* \"contracts/0_Marketplace NFT/market.sol\":3107:3111  true */\n      0x01\n        /* \"contracts/0_Marketplace NFT/market.sol\":3095:3099  item */\n      dup2\n        /* \"contracts/0_Marketplace NFT/market.sol\":3095:3104  item.sold */\n      0x04\n      add\n      0x14\n        /* \"contracts/0_Marketplace NFT/market.sol\":3095:3111  item.sold = true */\n      0x0100\n      exp\n      dup2\n      sload\n      dup2\n      0xff\n      mul\n      not\n      and\n      swap1\n      dup4\n      iszero\n      iszero\n      mul\n      or\n      swap1\n      sstore\n      pop\n        /* \"contracts/0_Marketplace NFT/market.sol\":3171:3175  item */\n      dup1\n        /* \"contracts/0_Marketplace NFT/market.sol\":3171:3179  item.nft */\n      0x01\n      add\n      0x00\n      swap1\n      sload\n      swap1\n      0x0100\n      exp\n      swap1\n      div\n      0xffffffffffffffffffffffffffffffffffffffff\n      and\n        /* \"contracts/0_Marketplace NFT/market.sol\":3171:3192  item.nft.transferFrom */\n      0xffffffffffffffffffffffffffffffffffffffff\n      and\n      0x23b872dd\n        /* \"contracts/0_Marketplace NFT/market.sol\":3201:3205  this */\n      address\n        /* \"contracts/0_Marketplace NFT/market.sol\":3208:3218  msg.sender */\n      caller\n        /* \"contracts/0_Marketplace NFT/market.sol\":3220:3227  _itemId */\n      dup7\n        /* \"contracts/0_Marketplace NFT/market.sol\":3171:3228  item.nft.transferFrom(address(this), msg.sender, _itemId) */\n      mload(0x40)\n      dup5\n      0xffffffff\n      and\n      0xe0\n      shl\n      dup2\n      mstore\n      0x04\n      add\n      tag_80\n      swap4\n      swap3\n      swap2\n      swap1\n      tag_49\n      jump\t// in\n    tag_80:\n      0x00\n      mload(0x40)\n      dup1\n      dup4\n      sub\n      dup2\n      0x00\n      dup8\n      dup1\n      extcodesize\n      iszero\n      dup1\n      iszero\n      tag_81\n      jumpi\n      0x00\n      dup1\n      revert\n    tag_81:\n      pop\n      gas\n      call\n      iszero\n      dup1\n      iszero\n      tag_83\n      jumpi\n      returndatasize\n      0x00\n      dup1\n      returndatacopy\n      revert(0x00, returndatasize)\n    tag_83:\n      pop\n      pop\n      pop\n      pop\n        /* \"contracts/0_Marketplace NFT/market.sol\":3454:3464  msg.sender */\n      caller\n        /* \"contracts/0_Marketplace NFT/market.sol\":3296:3475  Bought(... */\n      0xffffffffffffffffffffffffffffffffffffffff\n      and\n        /* \"contracts/0_Marketplace NFT/market.sol\":3427:3431  item */\n      dup2\n        /* \"contracts/0_Marketplace NFT/market.sol\":3427:3438  item.seller */\n      0x04\n      add\n      0x00\n      swap1\n      sload\n      swap1\n      0x0100\n      exp\n      swap1\n      div\n      0xffffffffffffffffffffffffffffffffffffffff\n      and\n        /* \"contracts/0_Marketplace NFT/market.sol\":3296:3475  Bought(... */\n      0xffffffffffffffffffffffffffffffffffffffff\n      and\n        /* \"contracts/0_Marketplace NFT/market.sol\":3348:3352  item */\n      dup3\n        /* \"contracts/0_Marketplace NFT/market.sol\":3348:3356  item.nft */\n      0x01\n      add\n      0x00\n      swap1\n      sload\n      swap1\n      0x0100\n      exp\n      swap1\n      div\n      0xffffffffffffffffffffffffffffffffffffffff\n      and\n        /* \"contracts/0_Marketplace NFT/market.sol\":3296:3475  Bought(... */\n      0xffffffffffffffffffffffffffffffffffffffff\n      and\n      0x8b4c9c8a607d67b321582dd8461041b1dc2ceeca70c8b7f37f8e02095cf2e76d\n        /* \"contracts/0_Marketplace NFT/market.sol\":3317:3324  _itemId */\n      dup7\n        /* \"contracts/0_Marketplace NFT/market.sol\":3373:3377  item */\n      dup6\n        /* \"contracts/0_Marketplace NFT/market.sol\":3373:3385  item.tokenId */\n      0x02\n      add\n      sload\n        /* \"contracts/0_Marketplace NFT/market.sol\":3401:3405  item */\n      dup7\n        /* \"contracts/0_Marketplace NFT/market.sol\":3401:3411  item.price */\n      0x03\n      add\n      sload\n        /* \"contracts/0_Marketplace NFT/market.sol\":3296:3475  Bought(... */\n      mload(0x40)\n      tag_84\n      swap4\n      swap3\n      swap2\n      swap1\n      tag_54\n      jump\t// in\n    tag_84:\n      mload(0x40)\n      dup1\n      swap2\n      sub\n      swap1\n      log4\n        /* \"contracts/0_Marketplace NFT/market.sol\":2454:3491  {... */\n      pop\n      pop\n        /* \"@openzeppelin/contracts@4.5.0/security/ReentrancyGuard.sol\":1701:1702  1 */\n      0x01\n        /* \"@openzeppelin/contracts@4.5.0/security/ReentrancyGuard.sol\":2628:2635  _status */\n      0x00\n        /* \"@openzeppelin/contracts@4.5.0/security/ReentrancyGuard.sol\":2628:2650  _status = _NOT_ENTERED */\n      dup2\n      swap1\n      sstore\n      pop\n        /* \"contracts/0_Marketplace NFT/market.sol\":2392:3491  function buyItems (uint _itemId)external payable nonReentrant {... */\n      pop\n      jump\t// out\n        /* \"contracts/0_Marketplace NFT/market.sol\":547:590  address payable public immutable feeAccount */\n    tag_27:\n      immutable(\"0x9abd569a0444be7ce52d46a7fb79009940c0c0442116f15017290ff13cb4450c\")\n      dup2\n      jump\t// out\n        /* \"contracts/0_Marketplace NFT/market.sol\":749:770  uint public itemCount */\n    tag_32:\n      sload(0x01)\n      dup2\n      jump\t// out\n        /* \"contracts/0_Marketplace NFT/market.sol\":665:697  uint public immutable feePercent */\n    tag_36:\n      immutable(\"0xca1c98d2cee18ab5da51a9df7bbf45ca91ab83c708e48aed82f5115320306ab4\")\n      dup2\n      jump\t// out\n        /* \"contracts/0_Marketplace NFT/market.sol\":1042:1077  mapping (uint => Item) public items */\n    tag_41:\n      mstore(0x20, 0x02)\n      dup1\n      0x00\n      mstore\n      keccak256(0x00, 0x40)\n      0x00\n      swap2\n      pop\n      swap1\n      pop\n      dup1\n      0x00\n      add\n      sload\n      swap1\n      dup1\n      0x01\n      add\n      0x00\n      swap1\n      sload\n      swap1\n      0x0100\n      exp\n      swap1\n      div\n      0xffffffffffffffffffffffffffffffffffffffff\n      and\n      swap1\n      dup1\n      0x02\n      add\n      sload\n      swap1\n      dup1\n      0x03\n      add\n      sload\n      swap1\n      dup1\n      0x04\n      add\n      0x00\n      swap1\n      sload\n      swap1\n      0x0100\n      exp\n      swap1\n      div\n      0xffffffffffffffffffffffffffffffffffffffff\n      and\n      swap1\n      dup1\n      0x04\n      add\n      0x14\n      swap1\n      sload\n      swap1\n      0x0100\n      exp\n      swap1\n      div\n      0xff\n      and\n      swap1\n      pop\n      dup7\n      jump\t// out\n        /* \"#utility.yul\":88:205   */\n    tag_86:\n        /* \"#utility.yul\":197:198   */\n      0x00\n        /* \"#utility.yul\":194:195   */\n      dup1\n        /* \"#utility.yul\":187:199   */\n      revert\n        /* \"#utility.yul\":334:460   */\n    tag_88:\n        /* \"#utility.yul\":371:378   */\n      0x00\n        /* \"#utility.yul\":411:453   */\n      0xffffffffffffffffffffffffffffffffffffffff\n        /* \"#utility.yul\":404:409   */\n      dup3\n        /* \"#utility.yul\":400:454   */\n      and\n        /* \"#utility.yul\":389:454   */\n      swap1\n      pop\n        /* \"#utility.yul\":334:460   */\n      swap2\n      swap1\n      pop\n      jump\t// out\n        /* \"#utility.yul\":466:562   */\n    tag_89:\n        /* \"#utility.yul\":503:510   */\n      0x00\n        /* \"#utility.yul\":532:556   */\n      tag_118\n        /* \"#utility.yul\":550:555   */\n      dup3\n        /* \"#utility.yul\":532:556   */\n      tag_88\n      jump\t// in\n    tag_118:\n        /* \"#utility.yul\":521:556   */\n      swap1\n      pop\n        /* \"#utility.yul\":466:562   */\n      swap2\n      swap1\n      pop\n      jump\t// out\n        /* \"#utility.yul\":568:679   */\n    tag_90:\n        /* \"#utility.yul\":620:627   */\n      0x00\n        /* \"#utility.yul\":649:673   */\n      tag_120\n        /* \"#utility.yul\":667:672   */\n      dup3\n        /* \"#utility.yul\":649:673   */\n      tag_89\n      jump\t// in\n    tag_120:\n        /* \"#utility.yul\":638:673   */\n      swap1\n      pop\n        /* \"#utility.yul\":568:679   */\n      swap2\n      swap1\n      pop\n      jump\t// out\n        /* \"#utility.yul\":685:837   */\n    tag_91:\n        /* \"#utility.yul\":773:812   */\n      tag_122\n        /* \"#utility.yul\":806:811   */\n      dup2\n        /* \"#utility.yul\":773:812   */\n      tag_90\n      jump\t// in\n    tag_122:\n        /* \"#utility.yul\":766:771   */\n      dup2\n        /* \"#utility.yul\":763:813   */\n      eq\n        /* \"#utility.yul\":753:831   */\n      tag_123\n      jumpi\n        /* \"#utility.yul\":827:828   */\n      0x00\n        /* \"#utility.yul\":824:825   */\n      dup1\n        /* \"#utility.yul\":817:829   */\n      revert\n        /* \"#utility.yul\":753:831   */\n    tag_123:\n        /* \"#utility.yul\":685:837   */\n      pop\n      jump\t// out\n        /* \"#utility.yul\":843:1012   */\n    tag_92:\n        /* \"#utility.yul\":904:909   */\n      0x00\n        /* \"#utility.yul\":942:948   */\n      dup2\n        /* \"#utility.yul\":929:949   */\n      calldataload\n        /* \"#utility.yul\":920:949   */\n      swap1\n      pop\n        /* \"#utility.yul\":958:1006   */\n      tag_125\n        /* \"#utility.yul\":1000:1005   */\n      dup2\n        /* \"#utility.yul\":958:1006   */\n      tag_91\n      jump\t// in\n    tag_125:\n        /* \"#utility.yul\":843:1012   */\n      swap3\n      swap2\n      pop\n      pop\n      jump\t// out\n        /* \"#utility.yul\":1018:1095   */\n    tag_93:\n        /* \"#utility.yul\":1055:1062   */\n      0x00\n        /* \"#utility.yul\":1084:1089   */\n      dup2\n        /* \"#utility.yul\":1073:1089   */\n      swap1\n      pop\n        /* \"#utility.yul\":1018:1095   */\n      swap2\n      swap1\n      pop\n      jump\t// out\n        /* \"#utility.yul\":1101:1223   */\n    tag_94:\n        /* \"#utility.yul\":1174:1198   */\n      tag_128\n        /* \"#utility.yul\":1192:1197   */\n      dup2\n        /* \"#utility.yul\":1174:1198   */\n      tag_93\n      jump\t// in\n    tag_128:\n        /* \"#utility.yul\":1167:1172   */\n      dup2\n        /* \"#utility.yul\":1164:1199   */\n      eq\n        /* \"#utility.yul\":1154:1217   */\n      tag_129\n      jumpi\n        /* \"#utility.yul\":1213:1214   */\n      0x00\n        /* \"#utility.yul\":1210:1211   */\n      dup1\n        /* \"#utility.yul\":1203:1215   */\n      revert\n        /* \"#utility.yul\":1154:1217   */\n    tag_129:\n        /* \"#utility.yul\":1101:1223   */\n      pop\n      jump\t// out\n        /* \"#utility.yul\":1229:1368   */\n    tag_95:\n        /* \"#utility.yul\":1275:1280   */\n      0x00\n        /* \"#utility.yul\":1313:1319   */\n      dup2\n        /* \"#utility.yul\":1300:1320   */\n      calldataload\n        /* \"#utility.yul\":1291:1320   */\n      swap1\n      pop\n        /* \"#utility.yul\":1329:1362   */\n      tag_131\n        /* \"#utility.yul\":1356:1361   */\n      dup2\n        /* \"#utility.yul\":1329:1362   */\n      tag_94\n      jump\t// in\n    tag_131:\n        /* \"#utility.yul\":1229:1368   */\n      swap3\n      swap2\n      pop\n      pop\n      jump\t// out\n        /* \"#utility.yul\":1374:2023   */\n    tag_13:\n        /* \"#utility.yul\":1466:1472   */\n      0x00\n        /* \"#utility.yul\":1474:1480   */\n      dup1\n        /* \"#utility.yul\":1482:1488   */\n      0x00\n        /* \"#utility.yul\":1531:1533   */\n      0x60\n        /* \"#utility.yul\":1519:1528   */\n      dup5\n        /* \"#utility.yul\":1510:1517   */\n      dup7\n        /* \"#utility.yul\":1506:1529   */\n      sub\n        /* \"#utility.yul\":1502:1534   */\n      slt\n        /* \"#utility.yul\":1499:1618   */\n      iszero\n      tag_133\n      jumpi\n        /* \"#utility.yul\":1537:1616   */\n      tag_134\n      tag_86\n      jump\t// in\n    tag_134:\n        /* \"#utility.yul\":1499:1618   */\n    tag_133:\n        /* \"#utility.yul\":1657:1658   */\n      0x00\n        /* \"#utility.yul\":1682:1750   */\n      tag_135\n        /* \"#utility.yul\":1742:1749   */\n      dup7\n        /* \"#utility.yul\":1733:1739   */\n      dup3\n        /* \"#utility.yul\":1722:1731   */\n      dup8\n        /* \"#utility.yul\":1718:1740   */\n      add\n        /* \"#utility.yul\":1682:1750   */\n      tag_92\n      jump\t// in\n    tag_135:\n        /* \"#utility.yul\":1672:1750   */\n      swap4\n      pop\n        /* \"#utility.yul\":1628:1760   */\n      pop\n        /* \"#utility.yul\":1799:1801   */\n      0x20\n        /* \"#utility.yul\":1825:1878   */\n      tag_136\n        /* \"#utility.yul\":1870:1877   */\n      dup7\n        /* \"#utility.yul\":1861:1867   */\n      dup3\n        /* \"#utility.yul\":1850:1859   */\n      dup8\n        /* \"#utility.yul\":1846:1868   */\n      add\n        /* \"#utility.yul\":1825:1878   */\n      tag_95\n      jump\t// in\n    tag_136:\n        /* \"#utility.yul\":1815:1878   */\n      swap3\n      pop\n        /* \"#utility.yul\":1770:1888   */\n      pop\n        /* \"#utility.yul\":1927:1929   */\n      0x40\n        /* \"#utility.yul\":1953:2006   */\n      tag_137\n        /* \"#utility.yul\":1998:2005   */\n      dup7\n        /* \"#utility.yul\":1989:1995   */\n      dup3\n        /* \"#utility.yul\":1978:1987   */\n      dup8\n        /* \"#utility.yul\":1974:1996   */\n      add\n        /* \"#utility.yul\":1953:2006   */\n      tag_95\n      jump\t// in\n    tag_137:\n        /* \"#utility.yul\":1943:2006   */\n      swap2\n      pop\n        /* \"#utility.yul\":1898:2016   */\n      pop\n        /* \"#utility.yul\":1374:2023   */\n      swap3\n      pop\n      swap3\n      pop\n      swap3\n      jump\t// out\n        /* \"#utility.yul\":2029:2358   */\n    tag_18:\n        /* \"#utility.yul\":2088:2094   */\n      0x00\n        /* \"#utility.yul\":2137:2139   */\n      0x20\n        /* \"#utility.yul\":2125:2134   */\n      dup3\n        /* \"#utility.yul\":2116:2123   */\n      dup5\n        /* \"#utility.yul\":2112:2135   */\n      sub\n        /* \"#utility.yul\":2108:2140   */\n      slt\n        /* \"#utility.yul\":2105:2224   */\n      iszero\n      tag_139\n      jumpi\n        /* \"#utility.yul\":2143:2222   */\n      tag_140\n      tag_86\n      jump\t// in\n    tag_140:\n        /* \"#utility.yul\":2105:2224   */\n    tag_139:\n        /* \"#utility.yul\":2263:2264   */\n      0x00\n        /* \"#utility.yul\":2288:2341   */\n      tag_141\n        /* \"#utility.yul\":2333:2340   */\n      dup5\n        /* \"#utility.yul\":2324:2330   */\n      dup3\n        /* \"#utility.yul\":2313:2322   */\n      dup6\n        /* \"#utility.yul\":2309:2331   */\n      add\n        /* \"#utility.yul\":2288:2341   */\n      tag_95\n      jump\t// in\n    tag_141:\n        /* \"#utility.yul\":2278:2341   */\n      swap2\n      pop\n        /* \"#utility.yul\":2234:2351   */\n      pop\n        /* \"#utility.yul\":2029:2358   */\n      swap3\n      swap2\n      pop\n      pop\n      jump\t// out\n        /* \"#utility.yul\":2364:2482   */\n    tag_96:\n        /* \"#utility.yul\":2451:2475   */\n      tag_143\n        /* \"#utility.yul\":2469:2474   */\n      dup2\n        /* \"#utility.yul\":2451:2475   */\n      tag_93\n      jump\t// in\n    tag_143:\n        /* \"#utility.yul\":2446:2449   */\n      dup3\n        /* \"#utility.yul\":2439:2476   */\n      mstore\n        /* \"#utility.yul\":2364:2482   */\n      pop\n      pop\n      jump\t// out\n        /* \"#utility.yul\":2488:2710   */\n    tag_21:\n        /* \"#utility.yul\":2581:2585   */\n      0x00\n        /* \"#utility.yul\":2619:2621   */\n      0x20\n        /* \"#utility.yul\":2608:2617   */\n      dup3\n        /* \"#utility.yul\":2604:2622   */\n      add\n        /* \"#utility.yul\":2596:2622   */\n      swap1\n      pop\n        /* \"#utility.yul\":2632:2703   */\n      tag_145\n        /* \"#utility.yul\":2700:2701   */\n      0x00\n        /* \"#utility.yul\":2689:2698   */\n      dup4\n        /* \"#utility.yul\":2685:2702   */\n      add\n        /* \"#utility.yul\":2676:2682   */\n      dup5\n        /* \"#utility.yul\":2632:2703   */\n      tag_96\n      jump\t// in\n    tag_145:\n        /* \"#utility.yul\":2488:2710   */\n      swap3\n      swap2\n      pop\n      pop\n      jump\t// out\n        /* \"#utility.yul\":2716:2820   */\n    tag_97:\n        /* \"#utility.yul\":2761:2768   */\n      0x00\n        /* \"#utility.yul\":2790:2814   */\n      tag_147\n        /* \"#utility.yul\":2808:2813   */\n      dup3\n        /* \"#utility.yul\":2790:2814   */\n      tag_88\n      jump\t// in\n    tag_147:\n        /* \"#utility.yul\":2779:2814   */\n      swap1\n      pop\n        /* \"#utility.yul\":2716:2820   */\n      swap2\n      swap1\n      pop\n      jump\t// out\n        /* \"#utility.yul\":2826:2968   */\n    tag_98:\n        /* \"#utility.yul\":2929:2961   */\n      tag_149\n        /* \"#utility.yul\":2955:2960   */\n      dup2\n        /* \"#utility.yul\":2929:2961   */\n      tag_97\n      jump\t// in\n    tag_149:\n        /* \"#utility.yul\":2924:2927   */\n      dup3\n        /* \"#utility.yul\":2917:2962   */\n      mstore\n        /* \"#utility.yul\":2826:2968   */\n      pop\n      pop\n      jump\t// out\n        /* \"#utility.yul\":2974:3228   */\n    tag_29:\n        /* \"#utility.yul\":3083:3087   */\n      0x00\n        /* \"#utility.yul\":3121:3123   */\n      0x20\n        /* \"#utility.yul\":3110:3119   */\n      dup3\n        /* \"#utility.yul\":3106:3124   */\n      add\n        /* \"#utility.yul\":3098:3124   */\n      swap1\n      pop\n        /* \"#utility.yul\":3134:3221   */\n      tag_151\n        /* \"#utility.yul\":3218:3219   */\n      0x00\n        /* \"#utility.yul\":3207:3216   */\n      dup4\n        /* \"#utility.yul\":3203:3220   */\n      add\n        /* \"#utility.yul\":3194:3200   */\n      dup5\n        /* \"#utility.yul\":3134:3221   */\n      tag_98\n      jump\t// in\n    tag_151:\n        /* \"#utility.yul\":2974:3228   */\n      swap3\n      swap2\n      pop\n      pop\n      jump\t// out\n        /* \"#utility.yul\":3234:3294   */\n    tag_99:\n        /* \"#utility.yul\":3262:3265   */\n      0x00\n        /* \"#utility.yul\":3283:3288   */\n      dup2\n        /* \"#utility.yul\":3276:3288   */\n      swap1\n      pop\n        /* \"#utility.yul\":3234:3294   */\n      swap2\n      swap1\n      pop\n      jump\t// out\n        /* \"#utility.yul\":3300:3442   */\n    tag_100:\n        /* \"#utility.yul\":3350:3359   */\n      0x00\n        /* \"#utility.yul\":3383:3436   */\n      tag_154\n        /* \"#utility.yul\":3401:3435   */\n      tag_155\n        /* \"#utility.yul\":3410:3434   */\n      tag_156\n        /* \"#utility.yul\":3428:3433   */\n      dup5\n        /* \"#utility.yul\":3410:3434   */\n      tag_88\n      jump\t// in\n    tag_156:\n        /* \"#utility.yul\":3401:3435   */\n      tag_99\n      jump\t// in\n    tag_155:\n        /* \"#utility.yul\":3383:3436   */\n      tag_88\n      jump\t// in\n    tag_154:\n        /* \"#utility.yul\":3370:3436   */\n      swap1\n      pop\n        /* \"#utility.yul\":3300:3442   */\n      swap2\n      swap1\n      pop\n      jump\t// out\n        /* \"#utility.yul\":3448:3574   */\n    tag_101:\n        /* \"#utility.yul\":3498:3507   */\n      0x00\n        /* \"#utility.yul\":3531:3568   */\n      tag_158\n        /* \"#utility.yul\":3562:3567   */\n      dup3\n        /* \"#utility.yul\":3531:3568   */\n      tag_100\n      jump\t// in\n    tag_158:\n        /* \"#utility.yul\":3518:3568   */\n      swap1\n      pop\n        /* \"#utility.yul\":3448:3574   */\n      swap2\n      swap1\n      pop\n      jump\t// out\n        /* \"#utility.yul\":3580:3721   */\n    tag_102:\n        /* \"#utility.yul\":3645:3654   */\n      0x00\n        /* \"#utility.yul\":3678:3715   */\n      tag_160\n        /* \"#utility.yul\":3709:3714   */\n      dup3\n        /* \"#utility.yul\":3678:3715   */\n      tag_101\n      jump\t// in\n    tag_160:\n        /* \"#utility.yul\":3665:3715   */\n      swap1\n      pop\n        /* \"#utility.yul\":3580:3721   */\n      swap2\n      swap1\n      pop\n      jump\t// out\n        /* \"#utility.yul\":3727:3888   */\n    tag_103:\n        /* \"#utility.yul\":3829:3881   */\n      tag_162\n        /* \"#utility.yul\":3875:3880   */\n      dup2\n        /* \"#utility.yul\":3829:3881   */\n      tag_102\n      jump\t// in\n    tag_162:\n        /* \"#utility.yul\":3824:3827   */\n      dup3\n        /* \"#utility.yul\":3817:3882   */\n      mstore\n        /* \"#utility.yul\":3727:3888   */\n      pop\n      pop\n      jump\t// out\n        /* \"#utility.yul\":3894:3984   */\n    tag_104:\n        /* \"#utility.yul\":3928:3935   */\n      0x00\n        /* \"#utility.yul\":3971:3976   */\n      dup2\n        /* \"#utility.yul\":3964:3977   */\n      iszero\n        /* \"#utility.yul\":3957:3978   */\n      iszero\n        /* \"#utility.yul\":3946:3978   */\n      swap1\n      pop\n        /* \"#utility.yul\":3894:3984   */\n      swap2\n      swap1\n      pop\n      jump\t// out\n        /* \"#utility.yul\":3990:4099   */\n    tag_105:\n        /* \"#utility.yul\":4071:4092   */\n      tag_165\n        /* \"#utility.yul\":4086:4091   */\n      dup2\n        /* \"#utility.yul\":4071:4092   */\n      tag_104\n      jump\t// in\n    tag_165:\n        /* \"#utility.yul\":4066:4069   */\n      dup3\n        /* \"#utility.yul\":4059:4093   */\n      mstore\n        /* \"#utility.yul\":3990:4099   */\n      pop\n      pop\n      jump\t// out\n        /* \"#utility.yul\":4105:4930   */\n    tag_43:\n        /* \"#utility.yul\":4363:4367   */\n      0x00\n        /* \"#utility.yul\":4401:4404   */\n      0xc0\n        /* \"#utility.yul\":4390:4399   */\n      dup3\n        /* \"#utility.yul\":4386:4405   */\n      add\n        /* \"#utility.yul\":4378:4405   */\n      swap1\n      pop\n        /* \"#utility.yul\":4415:4486   */\n      tag_167\n        /* \"#utility.yul\":4483:4484   */\n      0x00\n        /* \"#utility.yul\":4472:4481   */\n      dup4\n        /* \"#utility.yul\":4468:4485   */\n      add\n        /* \"#utility.yul\":4459:4465   */\n      dup10\n        /* \"#utility.yul\":4415:4486   */\n      tag_96\n      jump\t// in\n    tag_167:\n        /* \"#utility.yul\":4496:4583   */\n      tag_168\n        /* \"#utility.yul\":4579:4581   */\n      0x20\n        /* \"#utility.yul\":4568:4577   */\n      dup4\n        /* \"#utility.yul\":4564:4582   */\n      add\n        /* \"#utility.yul\":4555:4561   */\n      dup9\n        /* \"#utility.yul\":4496:4583   */\n      tag_103\n      jump\t// in\n    tag_168:\n        /* \"#utility.yul\":4593:4665   */\n      tag_169\n        /* \"#utility.yul\":4661:4663   */\n      0x40\n        /* \"#utility.yul\":4650:4659   */\n      dup4\n        /* \"#utility.yul\":4646:4664   */\n      add\n        /* \"#utility.yul\":4637:4643   */\n      dup8\n        /* \"#utility.yul\":4593:4665   */\n      tag_96\n      jump\t// in\n    tag_169:\n        /* \"#utility.yul\":4675:4747   */\n      tag_170\n        /* \"#utility.yul\":4743:4745   */\n      0x60\n        /* \"#utility.yul\":4732:4741   */\n      dup4\n        /* \"#utility.yul\":4728:4746   */\n      add\n        /* \"#utility.yul\":4719:4725   */\n      dup7\n        /* \"#utility.yul\":4675:4747   */\n      tag_96\n      jump\t// in\n    tag_170:\n        /* \"#utility.yul\":4757:4846   */\n      tag_171\n        /* \"#utility.yul\":4841:4844   */\n      0x80\n        /* \"#utility.yul\":4830:4839   */\n      dup4\n        /* \"#utility.yul\":4826:4845   */\n      add\n        /* \"#utility.yul\":4817:4823   */\n      dup6\n        /* \"#utility.yul\":4757:4846   */\n      tag_98\n      jump\t// in\n    tag_171:\n        /* \"#utility.yul\":4856:4923   */\n      tag_172\n        /* \"#utility.yul\":4918:4921   */\n      0xa0\n        /* \"#utility.yul\":4907:4916   */\n      dup4\n        /* \"#utility.yul\":4903:4922   */\n      add\n        /* \"#utility.yul\":4894:4900   */\n      dup5\n        /* \"#utility.yul\":4856:4923   */\n      tag_105\n      jump\t// in\n    tag_172:\n        /* \"#utility.yul\":4105:4930   */\n      swap8\n      swap7\n      pop\n      pop\n      pop\n      pop\n      pop\n      pop\n      pop\n      jump\t// out\n        /* \"#utility.yul\":4936:5116   */\n    tag_106:\n        /* \"#utility.yul\":4984:5061   */\n      0x4e487b7100000000000000000000000000000000000000000000000000000000\n        /* \"#utility.yul\":4981:4982   */\n      0x00\n        /* \"#utility.yul\":4974:5062   */\n      mstore\n        /* \"#utility.yul\":5081:5085   */\n      0x11\n        /* \"#utility.yul\":5078:5079   */\n      0x04\n        /* \"#utility.yul\":5071:5086   */\n      mstore\n        /* \"#utility.yul\":5105:5109   */\n      0x24\n        /* \"#utility.yul\":5102:5103   */\n      0x00\n        /* \"#utility.yul\":5095:5110   */\n      revert\n        /* \"#utility.yul\":5122:5355   */\n    tag_47:\n        /* \"#utility.yul\":5161:5164   */\n      0x00\n        /* \"#utility.yul\":5184:5208   */\n      tag_175\n        /* \"#utility.yul\":5202:5207   */\n      dup3\n        /* \"#utility.yul\":5184:5208   */\n      tag_93\n      jump\t// in\n    tag_175:\n        /* \"#utility.yul\":5175:5208   */\n      swap2\n      pop\n        /* \"#utility.yul\":5230:5296   */\n      0xffffffffffffffffffffffffffffffffffffffffffffffffffffffffffffffff\n        /* \"#utility.yul\":5223:5228   */\n      dup3\n        /* \"#utility.yul\":5220:5297   */\n      sub\n        /* \"#utility.yul\":5217:5320   */\n      tag_176\n      jumpi\n        /* \"#utility.yul\":5300:5318   */\n      tag_177\n      tag_106\n      jump\t// in\n    tag_177:\n        /* \"#utility.yul\":5217:5320   */\n    tag_176:\n        /* \"#utility.yul\":5347:5348   */\n      0x01\n        /* \"#utility.yul\":5340:5345   */\n      dup3\n        /* \"#utility.yul\":5336:5349   */\n      add\n        /* \"#utility.yul\":5329:5349   */\n      swap1\n      pop\n        /* \"#utility.yul\":5122:5355   */\n      swap2\n      swap1\n      pop\n      jump\t// out\n        /* \"#utility.yul\":5361:5479   */\n    tag_107:\n        /* \"#utility.yul\":5448:5472   */\n      tag_179\n        /* \"#utility.yul\":5466:5471   */\n      dup2\n        /* \"#utility.yul\":5448:5472   */\n      tag_89\n      jump\t// in\n    tag_179:\n        /* \"#utility.yul\":5443:5446   */\n      dup3\n        /* \"#utility.yul\":5436:5473   */\n      mstore\n        /* \"#utility.yul\":5361:5479   */\n      pop\n      pop\n      jump\t// out\n        /* \"#utility.yul\":5485:5927   */\n    tag_49:\n        /* \"#utility.yul\":5634:5638   */\n      0x00\n        /* \"#utility.yul\":5672:5674   */\n      0x60\n        /* \"#utility.yul\":5661:5670   */\n      dup3\n        /* \"#utility.yul\":5657:5675   */\n      add\n        /* \"#utility.yul\":5649:5675   */\n      swap1\n      pop\n        /* \"#utility.yul\":5685:5756   */\n      tag_181\n        /* \"#utility.yul\":5753:5754   */\n      0x00\n        /* \"#utility.yul\":5742:5751   */\n      dup4\n        /* \"#utility.yul\":5738:5755   */\n      add\n        /* \"#utility.yul\":5729:5735   */\n      dup7\n        /* \"#utility.yul\":5685:5756   */\n      tag_107\n      jump\t// in\n    tag_181:\n        /* \"#utility.yul\":5766:5838   */\n      tag_182\n        /* \"#utility.yul\":5834:5836   */\n      0x20\n        /* \"#utility.yul\":5823:5832   */\n      dup4\n        /* \"#utility.yul\":5819:5837   */\n      add\n        /* \"#utility.yul\":5810:5816   */\n      dup6\n        /* \"#utility.yul\":5766:5838   */\n      tag_107\n      jump\t// in\n    tag_182:\n        /* \"#utility.yul\":5848:5920   */\n      tag_183\n        /* \"#utility.yul\":5916:5918   */\n      0x40\n        /* \"#utility.yul\":5905:5914   */\n      dup4\n        /* \"#utility.yul\":5901:5919   */\n      add\n        /* \"#utility.yul\":5892:5898   */\n      dup5\n        /* \"#utility.yul\":5848:5920   */\n      tag_96\n      jump\t// in\n    tag_183:\n        /* \"#utility.yul\":5485:5927   */\n      swap5\n      swap4\n      pop\n      pop\n      pop\n      pop\n      jump\t// out\n        /* \"#utility.yul\":5933:6375   */\n    tag_54:\n        /* \"#utility.yul\":6082:6086   */\n      0x00\n        /* \"#utility.yul\":6120:6122   */\n      0x60\n        /* \"#utility.yul\":6109:6118   */\n      dup3\n        /* \"#utility.yul\":6105:6123   */\n      add\n        /* \"#utility.yul\":6097:6123   */\n      swap1\n      pop\n        /* \"#utility.yul\":6133:6204   */\n      tag_185\n        /* \"#utility.yul\":6201:6202   */\n      0x00\n        /* \"#utility.yul\":6190:6199   */\n      dup4\n        /* \"#utility.yul\":6186:6203   */\n      add\n        /* \"#utility.yul\":6177:6183   */\n      dup7\n        /* \"#utility.yul\":6133:6204   */\n      tag_96\n      jump\t// in\n    tag_185:\n        /* \"#utility.yul\":6214:6286   */\n      tag_186\n        /* \"#utility.yul\":6282:6284   */\n      0x20\n        /* \"#utility.yul\":6271:6280   */\n      dup4\n        /* \"#utility.yul\":6267:6285   */\n      add\n        /* \"#utility.yul\":6258:6264   */\n      dup6\n        /* \"#utility.yul\":6214:6286   */\n      tag_96\n      jump\t// in\n    tag_186:\n        /* \"#utility.yul\":6296:6368   */\n      tag_187\n        /* \"#utility.yul\":6364:6366   */\n      0x40\n        /* \"#utility.yul\":6353:6362   */\n      dup4\n        /* \"#utility.yul\":6349:6367   */\n      add\n        /* \"#utility.yul\":6340:6346   */\n      dup5\n        /* \"#utility.yul\":6296:6368   */\n      tag_96\n      jump\t// in\n    tag_187:\n        /* \"#utility.yul\":5933:6375   */\n      swap5\n      swap4\n      pop\n      pop\n      pop\n      pop\n      jump\t// out\n        /* \"#utility.yul\":6381:6572   */\n    tag_57:\n        /* \"#utility.yul\":6421:6424   */\n      0x00\n        /* \"#utility.yul\":6440:6460   */\n      tag_189\n        /* \"#utility.yul\":6458:6459   */\n      dup3\n        /* \"#utility.yul\":6440:6460   */\n      tag_93\n      jump\t// in\n    tag_189:\n        /* \"#utility.yul\":6435:6460   */\n      swap2\n      pop\n        /* \"#utility.yul\":6474:6494   */\n      tag_190\n        /* \"#utility.yul\":6492:6493   */\n      dup4\n        /* \"#utility.yul\":6474:6494   */\n      tag_93\n      jump\t// in\n    tag_190:\n        /* \"#utility.yul\":6469:6494   */\n      swap3\n      pop\n        /* \"#utility.yul\":6517:6518   */\n      dup3\n        /* \"#utility.yul\":6514:6515   */\n      dup3\n        /* \"#utility.yul\":6510:6519   */\n      add\n        /* \"#utility.yul\":6503:6519   */\n      swap1\n      pop\n        /* \"#utility.yul\":6538:6541   */\n      dup1\n        /* \"#utility.yul\":6535:6536   */\n      dup3\n        /* \"#utility.yul\":6532:6542   */\n      gt\n        /* \"#utility.yul\":6529:6565   */\n      iszero\n      tag_191\n      jumpi\n        /* \"#utility.yul\":6545:6563   */\n      tag_192\n      tag_106\n      jump\t// in\n    tag_192:\n        /* \"#utility.yul\":6529:6565   */\n    tag_191:\n        /* \"#utility.yul\":6381:6572   */\n      swap3\n      swap2\n      pop\n      pop\n      jump\t// out\n        /* \"#utility.yul\":6578:6988   */\n    tag_59:\n        /* \"#utility.yul\":6618:6625   */\n      0x00\n        /* \"#utility.yul\":6641:6661   */\n      tag_194\n        /* \"#utility.yul\":6659:6660   */\n      dup3\n        /* \"#utility.yul\":6641:6661   */\n      tag_93\n      jump\t// in\n    tag_194:\n        /* \"#utility.yul\":6636:6661   */\n      swap2\n      pop\n        /* \"#utility.yul\":6675:6695   */\n      tag_195\n        /* \"#utility.yul\":6693:6694   */\n      dup4\n        /* \"#utility.yul\":6675:6695   */\n      tag_93\n      jump\t// in\n    tag_195:\n        /* \"#utility.yul\":6670:6695   */\n      swap3\n      pop\n        /* \"#utility.yul\":6730:6731   */\n      dup3\n        /* \"#utility.yul\":6727:6728   */\n      dup3\n        /* \"#utility.yul\":6723:6732   */\n      mul\n        /* \"#utility.yul\":6752:6782   */\n      tag_196\n        /* \"#utility.yul\":6770:6781   */\n      dup2\n        /* \"#utility.yul\":6752:6782   */\n      tag_93\n      jump\t// in\n    tag_196:\n        /* \"#utility.yul\":6741:6782   */\n      swap2\n      pop\n        /* \"#utility.yul\":6931:6932   */\n      dup3\n        /* \"#utility.yul\":6922:6929   */\n      dup3\n        /* \"#utility.yul\":6918:6933   */\n      div\n        /* \"#utility.yul\":6915:6916   */\n      dup5\n        /* \"#utility.yul\":6912:6934   */\n      eq\n        /* \"#utility.yul\":6892:6893   */\n      dup4\n        /* \"#utility.yul\":6885:6894   */\n      iszero\n        /* \"#utility.yul\":6865:6948   */\n      or\n        /* \"#utility.yul\":6842:6981   */\n      tag_197\n      jumpi\n        /* \"#utility.yul\":6961:6979   */\n      tag_198\n      tag_106\n      jump\t// in\n    tag_198:\n        /* \"#utility.yul\":6842:6981   */\n    tag_197:\n        /* \"#utility.yul\":6626:6988   */\n      pop\n        /* \"#utility.yul\":6578:6988   */\n      swap3\n      swap2\n      pop\n      pop\n      jump\t// out\n        /* \"#utility.yul\":6994:7174   */\n    tag_108:\n        /* \"#utility.yul\":7042:7119   */\n      0x4e487b7100000000000000000000000000000000000000000000000000000000\n        /* \"#utility.yul\":7039:7040   */\n      0x00\n        /* \"#utility.yul\":7032:7120   */\n      mstore\n        /* \"#utility.yul\":7139:7143   */\n      0x12\n        /* \"#utility.yul\":7136:7137   */\n      0x04\n        /* \"#utility.yul\":7129:7144   */\n      mstore\n        /* \"#utility.yul\":7163:7167   */\n      0x24\n        /* \"#utility.yul\":7160:7161   */\n      0x00\n        /* \"#utility.yul\":7153:7168   */\n      revert\n        /* \"#utility.yul\":7180:7365   */\n    tag_61:\n        /* \"#utility.yul\":7220:7221   */\n      0x00\n        /* \"#utility.yul\":7237:7257   */\n      tag_201\n        /* \"#utility.yul\":7255:7256   */\n      dup3\n        /* \"#utility.yul\":7237:7257   */\n      tag_93\n      jump\t// in\n    tag_201:\n        /* \"#utility.yul\":7232:7257   */\n      swap2\n      pop\n        /* \"#utility.yul\":7271:7291   */\n      tag_202\n        /* \"#utility.yul\":7289:7290   */\n      dup4\n        /* \"#utility.yul\":7271:7291   */\n      tag_93\n      jump\t// in\n    tag_202:\n        /* \"#utility.yul\":7266:7291   */\n      swap3\n      pop\n        /* \"#utility.yul\":7310:7311   */\n      dup3\n        /* \"#utility.yul\":7300:7335   */\n      tag_203\n      jumpi\n        /* \"#utility.yul\":7315:7333   */\n      tag_204\n      tag_108\n      jump\t// in\n    tag_204:\n        /* \"#utility.yul\":7300:7335   */\n    tag_203:\n        /* \"#utility.yul\":7357:7358   */\n      dup3\n        /* \"#utility.yul\":7354:7355   */\n      dup3\n        /* \"#utility.yul\":7350:7359   */\n      div\n        /* \"#utility.yul\":7345:7359   */\n      swap1\n      pop\n        /* \"#utility.yul\":7180:7365   */\n      swap3\n      swap2\n      pop\n      pop\n      jump\t// out\n        /* \"#utility.yul\":7371:7540   */\n    tag_109:\n        /* \"#utility.yul\":7455:7466   */\n      0x00\n        /* \"#utility.yul\":7489:7495   */\n      dup3\n        /* \"#utility.yul\":7484:7487   */\n      dup3\n        /* \"#utility.yul\":7477:7496   */\n      mstore\n        /* \"#utility.yul\":7529:7533   */\n      0x20\n        /* \"#utility.yul\":7524:7527   */\n      dup3\n        /* \"#utility.yul\":7520:7534   */\n      add\n        /* \"#utility.yul\":7505:7534   */\n      swap1\n      pop\n        /* \"#utility.yul\":7371:7540   */\n      swap3\n      swap2\n      pop\n      pop\n      jump\t// out\n        /* \"#utility.yul\":7546:7727   */\n    tag_110:\n        /* \"#utility.yul\":7686:7719   */\n      0x5265656e7472616e637947756172643a207265656e7472616e742063616c6c00\n        /* \"#utility.yul\":7682:7683   */\n      0x00\n        /* \"#utility.yul\":7674:7680   */\n      dup3\n        /* \"#utility.yul\":7670:7684   */\n      add\n        /* \"#utility.yul\":7663:7720   */\n      mstore\n        /* \"#utility.yul\":7546:7727   */\n      pop\n      jump\t// out\n        /* \"#utility.yul\":7733:8099   */\n    tag_111:\n        /* \"#utility.yul\":7875:7878   */\n      0x00\n        /* \"#utility.yul\":7896:7963   */\n      tag_208\n        /* \"#utility.yul\":7960:7962   */\n      0x1f\n        /* \"#utility.yul\":7955:7958   */\n      dup4\n        /* \"#utility.yul\":7896:7963   */\n      tag_109\n      jump\t// in\n    tag_208:\n        /* \"#utility.yul\":7889:7963   */\n      swap2\n      pop\n        /* \"#utility.yul\":7972:8065   */\n      tag_209\n        /* \"#utility.yul\":8061:8064   */\n      dup3\n        /* \"#utility.yul\":7972:8065   */\n      tag_110\n      jump\t// in\n    tag_209:\n        /* \"#utility.yul\":8090:8092   */\n      0x20\n        /* \"#utility.yul\":8085:8088   */\n      dup3\n        /* \"#utility.yul\":8081:8093   */\n      add\n        /* \"#utility.yul\":8074:8093   */\n      swap1\n      pop\n        /* \"#utility.yul\":7733:8099   */\n      swap2\n      swap1\n      pop\n      jump\t// out\n        /* \"#utility.yul\":8105:8524   */\n    tag_65:\n        /* \"#utility.yul\":8271:8275   */\n      0x00\n        /* \"#utility.yul\":8309:8311   */\n      0x20\n        /* \"#utility.yul\":8298:8307   */\n      dup3\n        /* \"#utility.yul\":8294:8312   */\n      add\n        /* \"#utility.yul\":8286:8312   */\n      swap1\n      pop\n        /* \"#utility.yul\":8358:8367   */\n      dup2\n        /* \"#utility.yul\":8352:8356   */\n      dup2\n        /* \"#utility.yul\":8348:8368   */\n      sub\n        /* \"#utility.yul\":8344:8345   */\n      0x00\n        /* \"#utility.yul\":8333:8342   */\n      dup4\n        /* \"#utility.yul\":8329:8346   */\n      add\n        /* \"#utility.yul\":8322:8369   */\n      mstore\n        /* \"#utility.yul\":8386:8517   */\n      tag_211\n        /* \"#utility.yul\":8512:8516   */\n      dup2\n        /* \"#utility.yul\":8386:8517   */\n      tag_111\n      jump\t// in\n    tag_211:\n        /* \"#utility.yul\":8378:8517   */\n      swap1\n      pop\n        /* \"#utility.yul\":8105:8524   */\n      swap2\n      swap1\n      pop\n      jump\t// out\n        /* \"#utility.yul\":8530:8724   */\n    tag_77:\n        /* \"#utility.yul\":8570:8574   */\n      0x00\n        /* \"#utility.yul\":8590:8610   */\n      tag_213\n        /* \"#utility.yul\":8608:8609   */\n      dup3\n        /* \"#utility.yul\":8590:8610   */\n      tag_93\n      jump\t// in\n    tag_213:\n        /* \"#utility.yul\":8585:8610   */\n      swap2\n      pop\n        /* \"#utility.yul\":8624:8644   */\n      tag_214\n        /* \"#utility.yul\":8642:8643   */\n      dup4\n        /* \"#utility.yul\":8624:8644   */\n      tag_93\n      jump\t// in\n    tag_214:\n        /* \"#utility.yul\":8619:8644   */\n      swap3\n      pop\n        /* \"#utility.yul\":8668:8669   */\n      dup3\n        /* \"#utility.yul\":8665:8666   */\n      dup3\n        /* \"#utility.yul\":8661:8670   */\n      sub\n        /* \"#utility.yul\":8653:8670   */\n      swap1\n      pop\n        /* \"#utility.yul\":8692:8693   */\n      dup2\n        /* \"#utility.yul\":8686:8690   */\n      dup2\n        /* \"#utility.yul\":8683:8694   */\n      gt\n        /* \"#utility.yul\":8680:8717   */\n      iszero\n      tag_215\n      jumpi\n        /* \"#utility.yul\":8697:8715   */\n      tag_216\n      tag_106\n      jump\t// in\n    tag_216:\n        /* \"#utility.yul\":8680:8717   */\n    tag_215:\n        /* \"#utility.yul\":8530:8724   */\n      swap3\n      swap2\n      pop\n      pop\n      jump\t// out\n\n    auxdata: 0xa26469706673582212209b5e4679f361d4e66c6bff2e5e413bb90038d5a3bcbb1f3619efe9a5d61183f764736f6c63430008190033\n}\n",
				"bytecode": {
					"linkReferences": {},
					"object": "60c060405234801561000f575f80fd5b50604051610eb1380380610eb1833981810160405281019061003191906100b1565b60015f819055503373ffffffffffffffffffffffffffffffffffffffff1660808173ffffffffffffffffffffffffffffffffffffffff16815250508060a08181525050506100dc565b5f80fd5b5f819050919050565b6100908161007e565b811461009a575f80fd5b50565b5f815190506100ab81610087565b92915050565b5f602082840312156100c6576100c561007a565b5b5f6100d38482850161009d565b91505092915050565b60805160a051610d9f6101125f395f81816103ee01528181610606015261080901525f81816105cc01526107df0152610d9f5ff3fe60806040526004361061006f575f3560e01c806365e17c9d1161004d57806365e17c9d146100f35780636bfb0d011461011d5780637fd6f15c14610147578063bfb231d2146101715761006f565b806302d44b5014610073578063221f22851461009b578063631f6d07146100d7575b5f80fd5b34801561007e575f80fd5b5061009960048036038101906100949190610950565b6101b2565b005b3480156100a6575f80fd5b506100c160048036038101906100bc91906109a0565b6103e9565b6040516100ce91906109da565b60405180910390f35b6100f160048036038101906100ec91906109a0565b610449565b005b3480156100fe575f80fd5b506101076107dd565b6040516101149190610a13565b60405180910390f35b348015610128575f80fd5b50610131610801565b60405161013e91906109da565b60405180910390f35b348015610152575f80fd5b5061015b610807565b60405161016891906109da565b60405180910390f35b34801561017c575f80fd5b50610197600480360381019061019291906109a0565b61082b565b6040516101a996959493929190610aa1565b60405180910390f35b5f81116101bd575f80fd5b60015f8154809291906101cf90610b2d565b91905055508273ffffffffffffffffffffffffffffffffffffffff166323b872dd3330856040518463ffffffff1660e01b815260040161021193929190610b83565b5f604051808303815f87803b158015610228575f80fd5b505af115801561023a573d5f803e3d5ffd5b505050506040518060c0016040528060015481526020018473ffffffffffffffffffffffffffffffffffffffff1681526020018381526020018281526020013373ffffffffffffffffffffffffffffffffffffffff1681526020015f151581525060025f60015481526020019081526020015f205f820151815f01556020820151816001015f6101000a81548173ffffffffffffffffffffffffffffffffffffffff021916908373ffffffffffffffffffffffffffffffffffffffff16021790555060408201518160020155606082015181600301556080820151816004015f6101000a81548173ffffffffffffffffffffffffffffffffffffffff021916908373ffffffffffffffffffffffffffffffffffffffff16021790555060a08201518160040160146101000a81548160ff0219169083151502179055509050503373ffffffffffffffffffffffffffffffffffffffff168373ffffffffffffffffffffffffffffffffffffffff167f655a0cf9c8db81512be9a76dc1c5ae5380b8816ce6ad659cd61b715e2999d59a60015485856040516103dc93929190610bb8565b60405180910390a3505050565b5f60647f000000000000000000000000000000000000000000000000000000000000000060646104199190610bed565b60025f8581526020019081526020015f20600301546104389190610c20565b6104429190610c8e565b9050919050565b60025f540361048d576040517f08c379a000000000000000000000000000000000000000000000000000000000815260040161048490610d18565b60405180910390fd5b60025f819055505f61049e826103e9565b90505f60025f8481526020019081526020015f2090505f831180156104c557506001548311155b6104cd575f80fd5b813410156104d9575f80fd5b8060040160149054906101000a900460ff16156104f4575f80fd5b806004015f9054906101000a900473ffffffffffffffffffffffffffffffffffffffff1673ffffffffffffffffffffffffffffffffffffffff166108fc826003015490811502906040515f60405180830381858888f1935050505015801561055e573d5f803e3d5ffd5b50806004015f9054906101000a900473ffffffffffffffffffffffffffffffffffffffff1673ffffffffffffffffffffffffffffffffffffffff166108fc826003015490811502906040515f60405180830381858888f193505050501580156105c9573d5f803e3d5ffd5b507f000000000000000000000000000000000000000000000000000000000000000073ffffffffffffffffffffffffffffffffffffffff166108fc7f0000000000000000000000000000000000000000000000000000000000000000846106309190610d36565b90811502906040515f60405180830381858888f19350505050158015610658573d5f803e3d5ffd5b5060018160040160146101000a81548160ff021916908315150217905550806001015f9054906101000a900473ffffffffffffffffffffffffffffffffffffffff1673ffffffffffffffffffffffffffffffffffffffff166323b872dd3033866040518463ffffffff1660e01b81526004016106d693929190610b83565b5f604051808303815f87803b1580156106ed575f80fd5b505af11580156106ff573d5f803e3d5ffd5b505050503373ffffffffffffffffffffffffffffffffffffffff16816004015f9054906101000a900473ffffffffffffffffffffffffffffffffffffffff1673ffffffffffffffffffffffffffffffffffffffff16826001015f9054906101000a900473ffffffffffffffffffffffffffffffffffffffff1673ffffffffffffffffffffffffffffffffffffffff167f8b4c9c8a607d67b321582dd8461041b1dc2ceeca70c8b7f37f8e02095cf2e76d86856002015486600301546040516107c993929190610bb8565b60405180910390a4505060015f8190555050565b7f000000000000000000000000000000000000000000000000000000000000000081565b60015481565b7f000000000000000000000000000000000000000000000000000000000000000081565b6002602052805f5260405f205f91509050805f015490806001015f9054906101000a900473ffffffffffffffffffffffffffffffffffffffff1690806002015490806003015490806004015f9054906101000a900473ffffffffffffffffffffffffffffffffffffffff16908060040160149054906101000a900460ff16905086565b5f80fd5b5f73ffffffffffffffffffffffffffffffffffffffff82169050919050565b5f6108db826108b2565b9050919050565b5f6108ec826108d1565b9050919050565b6108fc816108e2565b8114610906575f80fd5b50565b5f81359050610917816108f3565b92915050565b5f819050919050565b61092f8161091d565b8114610939575f80fd5b50565b5f8135905061094a81610926565b92915050565b5f805f60608486031215610967576109666108ae565b5b5f61097486828701610909565b93505060206109858682870161093c565b92505060406109968682870161093c565b9150509250925092565b5f602082840312156109b5576109b46108ae565b5b5f6109c28482850161093c565b91505092915050565b6109d48161091d565b82525050565b5f6020820190506109ed5f8301846109cb565b92915050565b5f6109fd826108b2565b9050919050565b610a0d816109f3565b82525050565b5f602082019050610a265f830184610a04565b92915050565b5f819050919050565b5f610a4f610a4a610a45846108b2565b610a2c565b6108b2565b9050919050565b5f610a6082610a35565b9050919050565b5f610a7182610a56565b9050919050565b610a8181610a67565b82525050565b5f8115159050919050565b610a9b81610a87565b82525050565b5f60c082019050610ab45f8301896109cb565b610ac16020830188610a78565b610ace60408301876109cb565b610adb60608301866109cb565b610ae86080830185610a04565b610af560a0830184610a92565b979650505050505050565b7f4e487b71000000000000000000000000000000000000000000000000000000005f52601160045260245ffd5b5f610b378261091d565b91507fffffffffffffffffffffffffffffffffffffffffffffffffffffffffffffffff8203610b6957610b68610b00565b5b600182019050919050565b610b7d816108d1565b82525050565b5f606082019050610b965f830186610b74565b610ba36020830185610b74565b610bb060408301846109cb565b949350505050565b5f606082019050610bcb5f8301866109cb565b610bd860208301856109cb565b610be560408301846109cb565b949350505050565b5f610bf78261091d565b9150610c028361091d565b9250828201905080821115610c1a57610c19610b00565b5b92915050565b5f610c2a8261091d565b9150610c358361091d565b9250828202610c438161091d565b91508282048414831517610c5a57610c59610b00565b5b5092915050565b7f4e487b71000000000000000000000000000000000000000000000000000000005f52601260045260245ffd5b5f610c988261091d565b9150610ca38361091d565b925082610cb357610cb2610c61565b5b828204905092915050565b5f82825260208201905092915050565b7f5265656e7472616e637947756172643a207265656e7472616e742063616c6c005f82015250565b5f610d02601f83610cbe565b9150610d0d82610cce565b602082019050919050565b5f6020820190508181035f830152610d2f81610cf6565b9050919050565b5f610d408261091d565b9150610d4b8361091d565b9250828203905081811115610d6357610d62610b00565b5b9291505056fea26469706673582212209b5e4679f361d4e66c6bff2e5e413bb90038d5a3bcbb1f3619efe9a5d61183f764736f6c63430008190033",
					"opcodes": "PUSH1 0xC0 PUSH1 0x40 MSTORE CALLVALUE DUP1 ISZERO PUSH2 0xF JUMPI PUSH0 DUP1 REVERT JUMPDEST POP PUSH1 0x40 MLOAD PUSH2 0xEB1 CODESIZE SUB DUP1 PUSH2 0xEB1 DUP4 CODECOPY DUP2 DUP2 ADD PUSH1 0x40 MSTORE DUP2 ADD SWAP1 PUSH2 0x31 SWAP2 SWAP1 PUSH2 0xB1 JUMP JUMPDEST PUSH1 0x1 PUSH0 DUP2 SWAP1 SSTORE POP CALLER PUSH20 0xFFFFFFFFFFFFFFFFFFFFFFFFFFFFFFFFFFFFFFFF AND PUSH1 0x80 DUP2 PUSH20 0xFFFFFFFFFFFFFFFFFFFFFFFFFFFFFFFFFFFFFFFF AND DUP2 MSTORE POP POP DUP1 PUSH1 0xA0 DUP2 DUP2 MSTORE POP POP POP PUSH2 0xDC JUMP JUMPDEST PUSH0 DUP1 REVERT JUMPDEST PUSH0 DUP2 SWAP1 POP SWAP2 SWAP1 POP JUMP JUMPDEST PUSH2 0x90 DUP2 PUSH2 0x7E JUMP JUMPDEST DUP2 EQ PUSH2 0x9A JUMPI PUSH0 DUP1 REVERT JUMPDEST POP JUMP JUMPDEST PUSH0 DUP2 MLOAD SWAP1 POP PUSH2 0xAB DUP2 PUSH2 0x87 JUMP JUMPDEST SWAP3 SWAP2 POP POP JUMP JUMPDEST PUSH0 PUSH1 0x20 DUP3 DUP5 SUB SLT ISZERO PUSH2 0xC6 JUMPI PUSH2 0xC5 PUSH2 0x7A JUMP JUMPDEST JUMPDEST PUSH0 PUSH2 0xD3 DUP5 DUP3 DUP6 ADD PUSH2 0x9D JUMP JUMPDEST SWAP2 POP POP SWAP3 SWAP2 POP POP JUMP JUMPDEST PUSH1 0x80 MLOAD PUSH1 0xA0 MLOAD PUSH2 0xD9F PUSH2 0x112 PUSH0 CODECOPY PUSH0 DUP2 DUP2 PUSH2 0x3EE ADD MSTORE DUP2 DUP2 PUSH2 0x606 ADD MSTORE PUSH2 0x809 ADD MSTORE PUSH0 DUP2 DUP2 PUSH2 0x5CC ADD MSTORE PUSH2 0x7DF ADD MSTORE PUSH2 0xD9F PUSH0 RETURN INVALID PUSH1 0x80 PUSH1 0x40 MSTORE PUSH1 0x4 CALLDATASIZE LT PUSH2 0x6F JUMPI PUSH0 CALLDATALOAD PUSH1 0xE0 SHR DUP1 PUSH4 0x65E17C9D GT PUSH2 0x4D JUMPI DUP1 PUSH4 0x65E17C9D EQ PUSH2 0xF3 JUMPI DUP1 PUSH4 0x6BFB0D01 EQ PUSH2 0x11D JUMPI DUP1 PUSH4 0x7FD6F15C EQ PUSH2 0x147 JUMPI DUP1 PUSH4 0xBFB231D2 EQ PUSH2 0x171 JUMPI PUSH2 0x6F JUMP JUMPDEST DUP1 PUSH4 0x2D44B50 EQ PUSH2 0x73 JUMPI DUP1 PUSH4 0x221F2285 EQ PUSH2 0x9B JUMPI DUP1 PUSH4 0x631F6D07 EQ PUSH2 0xD7 JUMPI JUMPDEST PUSH0 DUP1 REVERT JUMPDEST CALLVALUE DUP1 ISZERO PUSH2 0x7E JUMPI PUSH0 DUP1 REVERT JUMPDEST POP PUSH2 0x99 PUSH1 0x4 DUP1 CALLDATASIZE SUB DUP2 ADD SWAP1 PUSH2 0x94 SWAP2 SWAP1 PUSH2 0x950 JUMP JUMPDEST PUSH2 0x1B2 JUMP JUMPDEST STOP JUMPDEST CALLVALUE DUP1 ISZERO PUSH2 0xA6 JUMPI PUSH0 DUP1 REVERT JUMPDEST POP PUSH2 0xC1 PUSH1 0x4 DUP1 CALLDATASIZE SUB DUP2 ADD SWAP1 PUSH2 0xBC SWAP2 SWAP1 PUSH2 0x9A0 JUMP JUMPDEST PUSH2 0x3E9 JUMP JUMPDEST PUSH1 0x40 MLOAD PUSH2 0xCE SWAP2 SWAP1 PUSH2 0x9DA JUMP JUMPDEST PUSH1 0x40 MLOAD DUP1 SWAP2 SUB SWAP1 RETURN JUMPDEST PUSH2 0xF1 PUSH1 0x4 DUP1 CALLDATASIZE SUB DUP2 ADD SWAP1 PUSH2 0xEC SWAP2 SWAP1 PUSH2 0x9A0 JUMP JUMPDEST PUSH2 0x449 JUMP JUMPDEST STOP JUMPDEST CALLVALUE DUP1 ISZERO PUSH2 0xFE JUMPI PUSH0 DUP1 REVERT JUMPDEST POP PUSH2 0x107 PUSH2 0x7DD JUMP JUMPDEST PUSH1 0x40 MLOAD PUSH2 0x114 SWAP2 SWAP1 PUSH2 0xA13 JUMP JUMPDEST PUSH1 0x40 MLOAD DUP1 SWAP2 SUB SWAP1 RETURN JUMPDEST CALLVALUE DUP1 ISZERO PUSH2 0x128 JUMPI PUSH0 DUP1 REVERT JUMPDEST POP PUSH2 0x131 PUSH2 0x801 JUMP JUMPDEST PUSH1 0x40 MLOAD PUSH2 0x13E SWAP2 SWAP1 PUSH2 0x9DA JUMP JUMPDEST PUSH1 0x40 MLOAD DUP1 SWAP2 SUB SWAP1 RETURN JUMPDEST CALLVALUE DUP1 ISZERO PUSH2 0x152 JUMPI PUSH0 DUP1 REVERT JUMPDEST POP PUSH2 0x15B PUSH2 0x807 JUMP JUMPDEST PUSH1 0x40 MLOAD PUSH2 0x168 SWAP2 SWAP1 PUSH2 0x9DA JUMP JUMPDEST PUSH1 0x40 MLOAD DUP1 SWAP2 SUB SWAP1 RETURN JUMPDEST CALLVALUE DUP1 ISZERO PUSH2 0x17C JUMPI PUSH0 DUP1 REVERT JUMPDEST POP PUSH2 0x197 PUSH1 0x4 DUP1 CALLDATASIZE SUB DUP2 ADD SWAP1 PUSH2 0x192 SWAP2 SWAP1 PUSH2 0x9A0 JUMP JUMPDEST PUSH2 0x82B JUMP JUMPDEST PUSH1 0x40 MLOAD PUSH2 0x1A9 SWAP7 SWAP6 SWAP5 SWAP4 SWAP3 SWAP2 SWAP1 PUSH2 0xAA1 JUMP JUMPDEST PUSH1 0x40 MLOAD DUP1 SWAP2 SUB SWAP1 RETURN JUMPDEST PUSH0 DUP2 GT PUSH2 0x1BD JUMPI PUSH0 DUP1 REVERT JUMPDEST PUSH1 0x1 PUSH0 DUP2 SLOAD DUP1 SWAP3 SWAP2 SWAP1 PUSH2 0x1CF SWAP1 PUSH2 0xB2D JUMP JUMPDEST SWAP2 SWAP1 POP SSTORE POP DUP3 PUSH20 0xFFFFFFFFFFFFFFFFFFFFFFFFFFFFFFFFFFFFFFFF AND PUSH4 0x23B872DD CALLER ADDRESS DUP6 PUSH1 0x40 MLOAD DUP5 PUSH4 0xFFFFFFFF AND PUSH1 0xE0 SHL DUP2 MSTORE PUSH1 0x4 ADD PUSH2 0x211 SWAP4 SWAP3 SWAP2 SWAP1 PUSH2 0xB83 JUMP JUMPDEST PUSH0 PUSH1 0x40 MLOAD DUP1 DUP4 SUB DUP2 PUSH0 DUP8 DUP1 EXTCODESIZE ISZERO DUP1 ISZERO PUSH2 0x228 JUMPI PUSH0 DUP1 REVERT JUMPDEST POP GAS CALL ISZERO DUP1 ISZERO PUSH2 0x23A JUMPI RETURNDATASIZE PUSH0 DUP1 RETURNDATACOPY RETURNDATASIZE PUSH0 REVERT JUMPDEST POP POP POP POP PUSH1 0x40 MLOAD DUP1 PUSH1 0xC0 ADD PUSH1 0x40 MSTORE DUP1 PUSH1 0x1 SLOAD DUP2 MSTORE PUSH1 0x20 ADD DUP5 PUSH20 0xFFFFFFFFFFFFFFFFFFFFFFFFFFFFFFFFFFFFFFFF AND DUP2 MSTORE PUSH1 0x20 ADD DUP4 DUP2 MSTORE PUSH1 0x20 ADD DUP3 DUP2 MSTORE PUSH1 0x20 ADD CALLER PUSH20 0xFFFFFFFFFFFFFFFFFFFFFFFFFFFFFFFFFFFFFFFF AND DUP2 MSTORE PUSH1 0x20 ADD PUSH0 ISZERO ISZERO DUP2 MSTORE POP PUSH1 0x2 PUSH0 PUSH1 0x1 SLOAD DUP2 MSTORE PUSH1 0x20 ADD SWAP1 DUP2 MSTORE PUSH1 0x20 ADD PUSH0 KECCAK256 PUSH0 DUP3 ADD MLOAD DUP2 PUSH0 ADD SSTORE PUSH1 0x20 DUP3 ADD MLOAD DUP2 PUSH1 0x1 ADD PUSH0 PUSH2 0x100 EXP DUP2 SLOAD DUP2 PUSH20 0xFFFFFFFFFFFFFFFFFFFFFFFFFFFFFFFFFFFFFFFF MUL NOT AND SWAP1 DUP4 PUSH20 0xFFFFFFFFFFFFFFFFFFFFFFFFFFFFFFFFFFFFFFFF AND MUL OR SWAP1 SSTORE POP PUSH1 0x40 DUP3 ADD MLOAD DUP2 PUSH1 0x2 ADD SSTORE PUSH1 0x60 DUP3 ADD MLOAD DUP2 PUSH1 0x3 ADD SSTORE PUSH1 0x80 DUP3 ADD MLOAD DUP2 PUSH1 0x4 ADD PUSH0 PUSH2 0x100 EXP DUP2 SLOAD DUP2 PUSH20 0xFFFFFFFFFFFFFFFFFFFFFFFFFFFFFFFFFFFFFFFF MUL NOT AND SWAP1 DUP4 PUSH20 0xFFFFFFFFFFFFFFFFFFFFFFFFFFFFFFFFFFFFFFFF AND MUL OR SWAP1 SSTORE POP PUSH1 0xA0 DUP3 ADD MLOAD DUP2 PUSH1 0x4 ADD PUSH1 0x14 PUSH2 0x100 EXP DUP2 SLOAD DUP2 PUSH1 0xFF MUL NOT AND SWAP1 DUP4 ISZERO ISZERO MUL OR SWAP1 SSTORE POP SWAP1 POP POP CALLER PUSH20 0xFFFFFFFFFFFFFFFFFFFFFFFFFFFFFFFFFFFFFFFF AND DUP4 PUSH20 0xFFFFFFFFFFFFFFFFFFFFFFFFFFFFFFFFFFFFFFFF AND PUSH32 0x655A0CF9C8DB81512BE9A76DC1C5AE5380B8816CE6AD659CD61B715E2999D59A PUSH1 0x1 SLOAD DUP6 DUP6 PUSH1 0x40 MLOAD PUSH2 0x3DC SWAP4 SWAP3 SWAP2 SWAP1 PUSH2 0xBB8 JUMP JUMPDEST PUSH1 0x40 MLOAD DUP1 SWAP2 SUB SWAP1 LOG3 POP POP POP JUMP JUMPDEST PUSH0 PUSH1 0x64 PUSH32 0x0 PUSH1 0x64 PUSH2 0x419 SWAP2 SWAP1 PUSH2 0xBED JUMP JUMPDEST PUSH1 0x2 PUSH0 DUP6 DUP2 MSTORE PUSH1 0x20 ADD SWAP1 DUP2 MSTORE PUSH1 0x20 ADD PUSH0 KECCAK256 PUSH1 0x3 ADD SLOAD PUSH2 0x438 SWAP2 SWAP1 PUSH2 0xC20 JUMP JUMPDEST PUSH2 0x442 SWAP2 SWAP1 PUSH2 0xC8E JUMP JUMPDEST SWAP1 POP SWAP2 SWAP1 POP JUMP JUMPDEST PUSH1 0x2 PUSH0 SLOAD SUB PUSH2 0x48D JUMPI PUSH1 0x40 MLOAD PUSH32 0x8C379A000000000000000000000000000000000000000000000000000000000 DUP2 MSTORE PUSH1 0x4 ADD PUSH2 0x484 SWAP1 PUSH2 0xD18 JUMP JUMPDEST PUSH1 0x40 MLOAD DUP1 SWAP2 SUB SWAP1 REVERT JUMPDEST PUSH1 0x2 PUSH0 DUP2 SWAP1 SSTORE POP PUSH0 PUSH2 0x49E DUP3 PUSH2 0x3E9 JUMP JUMPDEST SWAP1 POP PUSH0 PUSH1 0x2 PUSH0 DUP5 DUP2 MSTORE PUSH1 0x20 ADD SWAP1 DUP2 MSTORE PUSH1 0x20 ADD PUSH0 KECCAK256 SWAP1 POP PUSH0 DUP4 GT DUP1 ISZERO PUSH2 0x4C5 JUMPI POP PUSH1 0x1 SLOAD DUP4 GT ISZERO JUMPDEST PUSH2 0x4CD JUMPI PUSH0 DUP1 REVERT JUMPDEST DUP2 CALLVALUE LT ISZERO PUSH2 0x4D9 JUMPI PUSH0 DUP1 REVERT JUMPDEST DUP1 PUSH1 0x4 ADD PUSH1 0x14 SWAP1 SLOAD SWAP1 PUSH2 0x100 EXP SWAP1 DIV PUSH1 0xFF AND ISZERO PUSH2 0x4F4 JUMPI PUSH0 DUP1 REVERT JUMPDEST DUP1 PUSH1 0x4 ADD PUSH0 SWAP1 SLOAD SWAP1 PUSH2 0x100 EXP SWAP1 DIV PUSH20 0xFFFFFFFFFFFFFFFFFFFFFFFFFFFFFFFFFFFFFFFF AND PUSH20 0xFFFFFFFFFFFFFFFFFFFFFFFFFFFFFFFFFFFFFFFF AND PUSH2 0x8FC DUP3 PUSH1 0x3 ADD SLOAD SWAP1 DUP2 ISZERO MUL SWAP1 PUSH1 0x40 MLOAD PUSH0 PUSH1 0x40 MLOAD DUP1 DUP4 SUB DUP2 DUP6 DUP9 DUP9 CALL SWAP4 POP POP POP POP ISZERO DUP1 ISZERO PUSH2 0x55E JUMPI RETURNDATASIZE PUSH0 DUP1 RETURNDATACOPY RETURNDATASIZE PUSH0 REVERT JUMPDEST POP DUP1 PUSH1 0x4 ADD PUSH0 SWAP1 SLOAD SWAP1 PUSH2 0x100 EXP SWAP1 DIV PUSH20 0xFFFFFFFFFFFFFFFFFFFFFFFFFFFFFFFFFFFFFFFF AND PUSH20 0xFFFFFFFFFFFFFFFFFFFFFFFFFFFFFFFFFFFFFFFF AND PUSH2 0x8FC DUP3 PUSH1 0x3 ADD SLOAD SWAP1 DUP2 ISZERO MUL SWAP1 PUSH1 0x40 MLOAD PUSH0 PUSH1 0x40 MLOAD DUP1 DUP4 SUB DUP2 DUP6 DUP9 DUP9 CALL SWAP4 POP POP POP POP ISZERO DUP1 ISZERO PUSH2 0x5C9 JUMPI RETURNDATASIZE PUSH0 DUP1 RETURNDATACOPY RETURNDATASIZE PUSH0 REVERT JUMPDEST POP PUSH32 0x0 PUSH20 0xFFFFFFFFFFFFFFFFFFFFFFFFFFFFFFFFFFFFFFFF AND PUSH2 0x8FC PUSH32 0x0 DUP5 PUSH2 0x630 SWAP2 SWAP1 PUSH2 0xD36 JUMP JUMPDEST SWAP1 DUP2 ISZERO MUL SWAP1 PUSH1 0x40 MLOAD PUSH0 PUSH1 0x40 MLOAD DUP1 DUP4 SUB DUP2 DUP6 DUP9 DUP9 CALL SWAP4 POP POP POP POP ISZERO DUP1 ISZERO PUSH2 0x658 JUMPI RETURNDATASIZE PUSH0 DUP1 RETURNDATACOPY RETURNDATASIZE PUSH0 REVERT JUMPDEST POP PUSH1 0x1 DUP2 PUSH1 0x4 ADD PUSH1 0x14 PUSH2 0x100 EXP DUP2 SLOAD DUP2 PUSH1 0xFF MUL NOT AND SWAP1 DUP4 ISZERO ISZERO MUL OR SWAP1 SSTORE POP DUP1 PUSH1 0x1 ADD PUSH0 SWAP1 SLOAD SWAP1 PUSH2 0x100 EXP SWAP1 DIV PUSH20 0xFFFFFFFFFFFFFFFFFFFFFFFFFFFFFFFFFFFFFFFF AND PUSH20 0xFFFFFFFFFFFFFFFFFFFFFFFFFFFFFFFFFFFFFFFF AND PUSH4 0x23B872DD ADDRESS CALLER DUP7 PUSH1 0x40 MLOAD DUP5 PUSH4 0xFFFFFFFF AND PUSH1 0xE0 SHL DUP2 MSTORE PUSH1 0x4 ADD PUSH2 0x6D6 SWAP4 SWAP3 SWAP2 SWAP1 PUSH2 0xB83 JUMP JUMPDEST PUSH0 PUSH1 0x40 MLOAD DUP1 DUP4 SUB DUP2 PUSH0 DUP8 DUP1 EXTCODESIZE ISZERO DUP1 ISZERO PUSH2 0x6ED JUMPI PUSH0 DUP1 REVERT JUMPDEST POP GAS CALL ISZERO DUP1 ISZERO PUSH2 0x6FF JUMPI RETURNDATASIZE PUSH0 DUP1 RETURNDATACOPY RETURNDATASIZE PUSH0 REVERT JUMPDEST POP POP POP POP CALLER PUSH20 0xFFFFFFFFFFFFFFFFFFFFFFFFFFFFFFFFFFFFFFFF AND DUP2 PUSH1 0x4 ADD PUSH0 SWAP1 SLOAD SWAP1 PUSH2 0x100 EXP SWAP1 DIV PUSH20 0xFFFFFFFFFFFFFFFFFFFFFFFFFFFFFFFFFFFFFFFF AND PUSH20 0xFFFFFFFFFFFFFFFFFFFFFFFFFFFFFFFFFFFFFFFF AND DUP3 PUSH1 0x1 ADD PUSH0 SWAP1 SLOAD SWAP1 PUSH2 0x100 EXP SWAP1 DIV PUSH20 0xFFFFFFFFFFFFFFFFFFFFFFFFFFFFFFFFFFFFFFFF AND PUSH20 0xFFFFFFFFFFFFFFFFFFFFFFFFFFFFFFFFFFFFFFFF AND PUSH32 0x8B4C9C8A607D67B321582DD8461041B1DC2CEECA70C8B7F37F8E02095CF2E76D DUP7 DUP6 PUSH1 0x2 ADD SLOAD DUP7 PUSH1 0x3 ADD SLOAD PUSH1 0x40 MLOAD PUSH2 0x7C9 SWAP4 SWAP3 SWAP2 SWAP1 PUSH2 0xBB8 JUMP JUMPDEST PUSH1 0x40 MLOAD DUP1 SWAP2 SUB SWAP1 LOG4 POP POP PUSH1 0x1 PUSH0 DUP2 SWAP1 SSTORE POP POP JUMP JUMPDEST PUSH32 0x0 DUP2 JUMP JUMPDEST PUSH1 0x1 SLOAD DUP2 JUMP JUMPDEST PUSH32 0x0 DUP2 JUMP JUMPDEST PUSH1 0x2 PUSH1 0x20 MSTORE DUP1 PUSH0 MSTORE PUSH1 0x40 PUSH0 KECCAK256 PUSH0 SWAP2 POP SWAP1 POP DUP1 PUSH0 ADD SLOAD SWAP1 DUP1 PUSH1 0x1 ADD PUSH0 SWAP1 SLOAD SWAP1 PUSH2 0x100 EXP SWAP1 DIV PUSH20 0xFFFFFFFFFFFFFFFFFFFFFFFFFFFFFFFFFFFFFFFF AND SWAP1 DUP1 PUSH1 0x2 ADD SLOAD SWAP1 DUP1 PUSH1 0x3 ADD SLOAD SWAP1 DUP1 PUSH1 0x4 ADD PUSH0 SWAP1 SLOAD SWAP1 PUSH2 0x100 EXP SWAP1 DIV PUSH20 0xFFFFFFFFFFFFFFFFFFFFFFFFFFFFFFFFFFFFFFFF AND SWAP1 DUP1 PUSH1 0x4 ADD PUSH1 0x14 SWAP1 SLOAD SWAP1 PUSH2 0x100 EXP SWAP1 DIV PUSH1 0xFF AND SWAP1 POP DUP7 JUMP JUMPDEST PUSH0 DUP1 REVERT JUMPDEST PUSH0 PUSH20 0xFFFFFFFFFFFFFFFFFFFFFFFFFFFFFFFFFFFFFFFF DUP3 AND SWAP1 POP SWAP2 SWAP1 POP JUMP JUMPDEST PUSH0 PUSH2 0x8DB DUP3 PUSH2 0x8B2 JUMP JUMPDEST SWAP1 POP SWAP2 SWAP1 POP JUMP JUMPDEST PUSH0 PUSH2 0x8EC DUP3 PUSH2 0x8D1 JUMP JUMPDEST SWAP1 POP SWAP2 SWAP1 POP JUMP JUMPDEST PUSH2 0x8FC DUP2 PUSH2 0x8E2 JUMP JUMPDEST DUP2 EQ PUSH2 0x906 JUMPI PUSH0 DUP1 REVERT JUMPDEST POP JUMP JUMPDEST PUSH0 DUP2 CALLDATALOAD SWAP1 POP PUSH2 0x917 DUP2 PUSH2 0x8F3 JUMP JUMPDEST SWAP3 SWAP2 POP POP JUMP JUMPDEST PUSH0 DUP2 SWAP1 POP SWAP2 SWAP1 POP JUMP JUMPDEST PUSH2 0x92F DUP2 PUSH2 0x91D JUMP JUMPDEST DUP2 EQ PUSH2 0x939 JUMPI PUSH0 DUP1 REVERT JUMPDEST POP JUMP JUMPDEST PUSH0 DUP2 CALLDATALOAD SWAP1 POP PUSH2 0x94A DUP2 PUSH2 0x926 JUMP JUMPDEST SWAP3 SWAP2 POP POP JUMP JUMPDEST PUSH0 DUP1 PUSH0 PUSH1 0x60 DUP5 DUP7 SUB SLT ISZERO PUSH2 0x967 JUMPI PUSH2 0x966 PUSH2 0x8AE JUMP JUMPDEST JUMPDEST PUSH0 PUSH2 0x974 DUP7 DUP3 DUP8 ADD PUSH2 0x909 JUMP JUMPDEST SWAP4 POP POP PUSH1 0x20 PUSH2 0x985 DUP7 DUP3 DUP8 ADD PUSH2 0x93C JUMP JUMPDEST SWAP3 POP POP PUSH1 0x40 PUSH2 0x996 DUP7 DUP3 DUP8 ADD PUSH2 0x93C JUMP JUMPDEST SWAP2 POP POP SWAP3 POP SWAP3 POP SWAP3 JUMP JUMPDEST PUSH0 PUSH1 0x20 DUP3 DUP5 SUB SLT ISZERO PUSH2 0x9B5 JUMPI PUSH2 0x9B4 PUSH2 0x8AE JUMP JUMPDEST JUMPDEST PUSH0 PUSH2 0x9C2 DUP5 DUP3 DUP6 ADD PUSH2 0x93C JUMP JUMPDEST SWAP2 POP POP SWAP3 SWAP2 POP POP JUMP JUMPDEST PUSH2 0x9D4 DUP2 PUSH2 0x91D JUMP JUMPDEST DUP3 MSTORE POP POP JUMP JUMPDEST PUSH0 PUSH1 0x20 DUP3 ADD SWAP1 POP PUSH2 0x9ED PUSH0 DUP4 ADD DUP5 PUSH2 0x9CB JUMP JUMPDEST SWAP3 SWAP2 POP POP JUMP JUMPDEST PUSH0 PUSH2 0x9FD DUP3 PUSH2 0x8B2 JUMP JUMPDEST SWAP1 POP SWAP2 SWAP1 POP JUMP JUMPDEST PUSH2 0xA0D DUP2 PUSH2 0x9F3 JUMP JUMPDEST DUP3 MSTORE POP POP JUMP JUMPDEST PUSH0 PUSH1 0x20 DUP3 ADD SWAP1 POP PUSH2 0xA26 PUSH0 DUP4 ADD DUP5 PUSH2 0xA04 JUMP JUMPDEST SWAP3 SWAP2 POP POP JUMP JUMPDEST PUSH0 DUP2 SWAP1 POP SWAP2 SWAP1 POP JUMP JUMPDEST PUSH0 PUSH2 0xA4F PUSH2 0xA4A PUSH2 0xA45 DUP5 PUSH2 0x8B2 JUMP JUMPDEST PUSH2 0xA2C JUMP JUMPDEST PUSH2 0x8B2 JUMP JUMPDEST SWAP1 POP SWAP2 SWAP1 POP JUMP JUMPDEST PUSH0 PUSH2 0xA60 DUP3 PUSH2 0xA35 JUMP JUMPDEST SWAP1 POP SWAP2 SWAP1 POP JUMP JUMPDEST PUSH0 PUSH2 0xA71 DUP3 PUSH2 0xA56 JUMP JUMPDEST SWAP1 POP SWAP2 SWAP1 POP JUMP JUMPDEST PUSH2 0xA81 DUP2 PUSH2 0xA67 JUMP JUMPDEST DUP3 MSTORE POP POP JUMP JUMPDEST PUSH0 DUP2 ISZERO ISZERO SWAP1 POP SWAP2 SWAP1 POP JUMP JUMPDEST PUSH2 0xA9B DUP2 PUSH2 0xA87 JUMP JUMPDEST DUP3 MSTORE POP POP JUMP JUMPDEST PUSH0 PUSH1 0xC0 DUP3 ADD SWAP1 POP PUSH2 0xAB4 PUSH0 DUP4 ADD DUP10 PUSH2 0x9CB JUMP JUMPDEST PUSH2 0xAC1 PUSH1 0x20 DUP4 ADD DUP9 PUSH2 0xA78 JUMP JUMPDEST PUSH2 0xACE PUSH1 0x40 DUP4 ADD DUP8 PUSH2 0x9CB JUMP JUMPDEST PUSH2 0xADB PUSH1 0x60 DUP4 ADD DUP7 PUSH2 0x9CB JUMP JUMPDEST PUSH2 0xAE8 PUSH1 0x80 DUP4 ADD DUP6 PUSH2 0xA04 JUMP JUMPDEST PUSH2 0xAF5 PUSH1 0xA0 DUP4 ADD DUP5 PUSH2 0xA92 JUMP JUMPDEST SWAP8 SWAP7 POP POP POP POP POP POP POP JUMP JUMPDEST PUSH32 0x4E487B7100000000000000000000000000000000000000000000000000000000 PUSH0 MSTORE PUSH1 0x11 PUSH1 0x4 MSTORE PUSH1 0x24 PUSH0 REVERT JUMPDEST PUSH0 PUSH2 0xB37 DUP3 PUSH2 0x91D JUMP JUMPDEST SWAP2 POP PUSH32 0xFFFFFFFFFFFFFFFFFFFFFFFFFFFFFFFFFFFFFFFFFFFFFFFFFFFFFFFFFFFFFFFF DUP3 SUB PUSH2 0xB69 JUMPI PUSH2 0xB68 PUSH2 0xB00 JUMP JUMPDEST JUMPDEST PUSH1 0x1 DUP3 ADD SWAP1 POP SWAP2 SWAP1 POP JUMP JUMPDEST PUSH2 0xB7D DUP2 PUSH2 0x8D1 JUMP JUMPDEST DUP3 MSTORE POP POP JUMP JUMPDEST PUSH0 PUSH1 0x60 DUP3 ADD SWAP1 POP PUSH2 0xB96 PUSH0 DUP4 ADD DUP7 PUSH2 0xB74 JUMP JUMPDEST PUSH2 0xBA3 PUSH1 0x20 DUP4 ADD DUP6 PUSH2 0xB74 JUMP JUMPDEST PUSH2 0xBB0 PUSH1 0x40 DUP4 ADD DUP5 PUSH2 0x9CB JUMP JUMPDEST SWAP5 SWAP4 POP POP POP POP JUMP JUMPDEST PUSH0 PUSH1 0x60 DUP3 ADD SWAP1 POP PUSH2 0xBCB PUSH0 DUP4 ADD DUP7 PUSH2 0x9CB JUMP JUMPDEST PUSH2 0xBD8 PUSH1 0x20 DUP4 ADD DUP6 PUSH2 0x9CB JUMP JUMPDEST PUSH2 0xBE5 PUSH1 0x40 DUP4 ADD DUP5 PUSH2 0x9CB JUMP JUMPDEST SWAP5 SWAP4 POP POP POP POP JUMP JUMPDEST PUSH0 PUSH2 0xBF7 DUP3 PUSH2 0x91D JUMP JUMPDEST SWAP2 POP PUSH2 0xC02 DUP4 PUSH2 0x91D JUMP JUMPDEST SWAP3 POP DUP3 DUP3 ADD SWAP1 POP DUP1 DUP3 GT ISZERO PUSH2 0xC1A JUMPI PUSH2 0xC19 PUSH2 0xB00 JUMP JUMPDEST JUMPDEST SWAP3 SWAP2 POP POP JUMP JUMPDEST PUSH0 PUSH2 0xC2A DUP3 PUSH2 0x91D JUMP JUMPDEST SWAP2 POP PUSH2 0xC35 DUP4 PUSH2 0x91D JUMP JUMPDEST SWAP3 POP DUP3 DUP3 MUL PUSH2 0xC43 DUP2 PUSH2 0x91D JUMP JUMPDEST SWAP2 POP DUP3 DUP3 DIV DUP5 EQ DUP4 ISZERO OR PUSH2 0xC5A JUMPI PUSH2 0xC59 PUSH2 0xB00 JUMP JUMPDEST JUMPDEST POP SWAP3 SWAP2 POP POP JUMP JUMPDEST PUSH32 0x4E487B7100000000000000000000000000000000000000000000000000000000 PUSH0 MSTORE PUSH1 0x12 PUSH1 0x4 MSTORE PUSH1 0x24 PUSH0 REVERT JUMPDEST PUSH0 PUSH2 0xC98 DUP3 PUSH2 0x91D JUMP JUMPDEST SWAP2 POP PUSH2 0xCA3 DUP4 PUSH2 0x91D JUMP JUMPDEST SWAP3 POP DUP3 PUSH2 0xCB3 JUMPI PUSH2 0xCB2 PUSH2 0xC61 JUMP JUMPDEST JUMPDEST DUP3 DUP3 DIV SWAP1 POP SWAP3 SWAP2 POP POP JUMP JUMPDEST PUSH0 DUP3 DUP3 MSTORE PUSH1 0x20 DUP3 ADD SWAP1 POP SWAP3 SWAP2 POP POP JUMP JUMPDEST PUSH32 0x5265656E7472616E637947756172643A207265656E7472616E742063616C6C00 PUSH0 DUP3 ADD MSTORE POP JUMP JUMPDEST PUSH0 PUSH2 0xD02 PUSH1 0x1F DUP4 PUSH2 0xCBE JUMP JUMPDEST SWAP2 POP PUSH2 0xD0D DUP3 PUSH2 0xCCE JUMP JUMPDEST PUSH1 0x20 DUP3 ADD SWAP1 POP SWAP2 SWAP1 POP JUMP JUMPDEST PUSH0 PUSH1 0x20 DUP3 ADD SWAP1 POP DUP2 DUP2 SUB PUSH0 DUP4 ADD MSTORE PUSH2 0xD2F DUP2 PUSH2 0xCF6 JUMP JUMPDEST SWAP1 POP SWAP2 SWAP1 POP JUMP JUMPDEST PUSH0 PUSH2 0xD40 DUP3 PUSH2 0x91D JUMP JUMPDEST SWAP2 POP PUSH2 0xD4B DUP4 PUSH2 0x91D JUMP JUMPDEST SWAP3 POP DUP3 DUP3 SUB SWAP1 POP DUP2 DUP2 GT ISZERO PUSH2 0xD63 JUMPI PUSH2 0xD62 PUSH2 0xB00 JUMP JUMPDEST JUMPDEST SWAP3 SWAP2 POP POP JUMP INVALID LOG2 PUSH5 0x6970667358 0x22 SLT KECCAK256 SWAP12 MCOPY CHAINID PUSH26 0xF361D4E66C6BFF2E5E413BB90038D5A3BCBB1F3619EFE9A5D611 DUP4 0xF7 PUSH5 0x736F6C6343 STOP ADDMOD NOT STOP CALLER "
				},
				"gasEstimates": {
					"creation": {
						"codeDepositCost": "697400",
						"executionCost": "infinite",
						"totalCost": "infinite"
					},
					"external": {
						"buyItems(uint256)": "infinite",
						"feeAccount()": "infinite",
						"feePercent()": "infinite",
						"itemCount()": "2447",
						"items(uint256)": "infinite",
						"makeItems(address,uint256,uint256)": "infinite",
						"totalPrice(uint256)": "infinite"
					}
				},
				"methodIdentifiers": {
					"buyItems(uint256)": "631f6d07",
					"feeAccount()": "65e17c9d",
					"feePercent()": "7fd6f15c",
					"itemCount()": "6bfb0d01",
					"items(uint256)": "bfb231d2",
					"makeItems(address,uint256,uint256)": "02d44b50",
					"totalPrice(uint256)": "221f2285"
				}
			},
			"storageLayout": {
				"storage": [
					{
						"astId": 10,
						"contract": "contracts/0_Marketplace NFT/market.sol:AvMarketplace",
						"label": "_status",
						"offset": 0,
						"slot": "0",
						"type": "t_uint256"
					},
					{
						"astId": 179,
						"contract": "contracts/0_Marketplace NFT/market.sol:AvMarketplace",
						"label": "itemCount",
						"offset": 0,
						"slot": "1",
						"type": "t_uint256"
					},
					{
						"astId": 198,
						"contract": "contracts/0_Marketplace NFT/market.sol:AvMarketplace",
						"label": "items",
						"offset": 0,
						"slot": "2",
						"type": "t_mapping(t_uint256,t_struct(Item)193_storage)"
					}
				],
				"types": {
					"t_address_payable": {
						"encoding": "inplace",
						"label": "address payable",
						"numberOfBytes": "20"
					},
					"t_bool": {
						"encoding": "inplace",
						"label": "bool",
						"numberOfBytes": "1"
					},
					"t_contract(IERC721)155": {
						"encoding": "inplace",
						"label": "contract IERC721",
						"numberOfBytes": "20"
					},
					"t_mapping(t_uint256,t_struct(Item)193_storage)": {
						"encoding": "mapping",
						"key": "t_uint256",
						"label": "mapping(uint256 => struct AvMarketplace.Item)",
						"numberOfBytes": "32",
						"value": "t_struct(Item)193_storage"
					},
					"t_struct(Item)193_storage": {
						"encoding": "inplace",
						"label": "struct AvMarketplace.Item",
						"members": [
							{
								"astId": 181,
								"contract": "contracts/0_Marketplace NFT/market.sol:AvMarketplace",
								"label": "itemId",
								"offset": 0,
								"slot": "0",
								"type": "t_uint256"
							},
							{
								"astId": 184,
								"contract": "contracts/0_Marketplace NFT/market.sol:AvMarketplace",
								"label": "nft",
								"offset": 0,
								"slot": "1",
								"type": "t_contract(IERC721)155"
							},
							{
								"astId": 186,
								"contract": "contracts/0_Marketplace NFT/market.sol:AvMarketplace",
								"label": "tokenId",
								"offset": 0,
								"slot": "2",
								"type": "t_uint256"
							},
							{
								"astId": 188,
								"contract": "contracts/0_Marketplace NFT/market.sol:AvMarketplace",
								"label": "price",
								"offset": 0,
								"slot": "3",
								"type": "t_uint256"
							},
							{
								"astId": 190,
								"contract": "contracts/0_Marketplace NFT/market.sol:AvMarketplace",
								"label": "seller",
								"offset": 0,
								"slot": "4",
								"type": "t_address_payable"
							},
							{
								"astId": 192,
								"contract": "contracts/0_Marketplace NFT/market.sol:AvMarketplace",
								"label": "sold",
								"offset": 20,
								"slot": "4",
								"type": "t_bool"
							}
						],
						"numberOfBytes": "160"
					},
					"t_uint256": {
						"encoding": "inplace",
						"label": "uint256",
						"numberOfBytes": "32"
					}
				}
			},
			"userdoc": {
				"kind": "user",
				"methods": {},
				"version": 1
			}
		}
	}
}